:020000040800F2
:1000000000280020E5170008751700087B17000876
:1000100081170008871700088D17000800000000EE
:10002000000000000000000000000000931700081E
:100030009F17000800000000AB170008B717000862
:100040002D1800082D1800082D1800082D1800087C
:100050002D1800082D1800082D1800082D1800086C
:100060002D1800082D1800082D1800082D1800085C
:100070002D1800082D1800082D1800082D1800084C
:100080002D1800082D1800082D1800082D1800083C
:100090002D1800082D1800082D1800082D1800082C
:1000A0002D1800082D1800082D1800082D1800081C
:1000B000C51700082D180008000000002D180008C2
:1000C0002D18000800000000000000002D18000896
:1000D000000000002D1800082D1800080000000086
:1000E0002D1800082D1800082D1800080000000029
:1000F0000000000000000000000000000000000000
:0C01000000000000000000005FF808F1A3
:10010C0010B5054C237833B9044B13B10448AFF345
:10011C0000800123237010BD44000020000000006B
:10012C005C2E000808B5034B1BB103490348AFF321
:10013C00008008BD00000000480000205C2E000874
:10014C0080B582B000AF786039607B68012B03D03A
:10015C007B68022B40F0F1803B68002BC0F2EF80F3
:10016C003B68092B00F3EB807B68012B03D07B6889
:10017C00022B71D0E4E0744A3B6813441B7803F003
:10018C000103002B14BF01230023DBB21A4601210B
:10019C006E4801F048FE6C4A3B6813441B7803F030
:1001AC000203002B14BF01230023DBB21A460221E9
:1001BC00664801F038FE644A3B6813441B7803F030
:1001CC000403002B14BF01230023DBB21A460421C5
:1001DC005E4801F028FE5C4A3B6813441B7803F030
:1001EC000803002B14BF01230023DBB21A4608219D
:1001FC00564801F018FE544A3B6813441B7803F030
:10020C001003002B14BF01230023DBB21A4610216C
:10021C004E4801F008FE4C4A3B6813441B7803F02F
:10022C002003002B14BF01230023DBB21A4620212C
:10023C00464801F0F8FD444A3B6813441B7803F030
:10024C004003002B14BF01230023DBB21A464021CC
:10025C003E4801F0E8FD73E03B4A3B6813441B78D1
:10026C0003F00103002B14BF01230023DBB21A4659
:10027C000121374801F0D7FD334A3B6813441B7802
:10028C0003F00203002B14BF01230023DBB21A4638
:10029C0002212F4801F0C7FD2B4A3B6813441B7801
:1002AC0003F00403002B14BF01230023DBB21A4616
:1002BC000421274801F0B7FD234A3B6813441B78FF
:1002CC0003F00803002B14BF01230023DBB21A46F2
:1002DC0008211F4801F0A7FD1B4A3B6813441B78FB
:1002EC0003F01003002B14BF01230023DBB21A46CA
:1002FC001021174801F097FD134A3B6813441B78F3
:10030C0003F02003002B14BF01230023DBB21A4699
:10031C0020210F4801F087FD0B4A3B6813441B78E2
:10032C0003F04003002B14BF01230023DBB21A4659
:10033C004021074801F077FD02E000BF00E000BF5C
:10034C000837BD4680BD00BF2C00002000080140CE
:10035C00000C014080B582B000AF78600122802192
:10036C002D4801F060FD01224FF480712A4801F004
:10037C005AFD01224FF40071274801F054FD01226F
:10038C004FF48061244801F04EFD7B68032B3ED86E
:10039C0001A252F823F000BFB5030008CD030008FA
:1003AC00E7030008010400081C4B1B6819460120D8
:1003BC00FFF7C6FE00228021174801F034FD27E02C
:1003CC00164B5B6819460120FFF7BAFE00224FF46A
:1003DC008071114801F027FD1AE0104B9B681946FB
:1003EC000220FFF7ADFE00224FF400710A4801F025
:1003FC001AFD0DE0094BDB6819460220FFF7A0FE41
:10040C0000224FF48061044801F00DFD00E000BFB4
:10041C0000BF0837BD4680BD000C014068000020BD
:10042C0080B483B000AF786039607B68012B03D057
:10043C007B68022B18D02FE03B681A4A82FB031210
:10044C009210DB17D31A184A13603968154B83FBCB
:10045C0001239A10CB17D21A13469B0013445B004E
:10046C00CA1A114B5A6017E03B680E4A82FB031202
:10047C009210DB17D31A0C4A93603968094B83FB33
:10048C0001239A10CB17D21A13469B0013445B001E
:10049C00CA1A054BDA6000BF00BF0C37BD4680BCE2
:1004AC00704700BF676666666800002080B483B042
:1004BC0000AF7860044A7B68012142F8231000BF2A
:1004CC000C37BD4680BC70479C00002080B483B0C4
:1004DC0000AF7860094A7B6852F82330012B06D1B3
:1004EC00064A7B68002142F82310012300E0002318
:1004FC0018460C37BD4680BC704700BF9C000020DE
:10050C0080B582B000AF00237B607EE0434A7B68FD
:10051C0052F8232042497B6841F82320414A7B68EA
:10052C0052F823203D497B6841F823203E4A7B68E2
:10053C0052F823203D497B6831F813301946104698
:10054C0001F05AFC03461946364A7B6842F82310E0
:10055C00344A7B6852F8232030497B6851F82330A9
:10056C009A424FD12D4A7B6852F823202C497B6844
:10057C0051F823309A4245D12D4A7B6852F82320FA
:10058C0027497B6851F823309A4216D0244A7B685D
:10059C0052F8232026497B6841F82320244A7B68A3
:1005AC0052F82330002B2DD17868FFF77FFF214ABA
:1005BC007B68C82142F8231024E01D4A7B6852F85E
:1005CC002330002B1ED11B4A7B6852F82330002BA2
:1005DC0018DD184A7B6852F823305A1E15497B687F
:1005EC0041F82320134A7B6852F82330002B09D1A1
:1005FC00104A7B68C82142F823100F4A7B680121FE
:10060C0042F823107B6801337B607B68022B7FF7F9
:10061C007DAF00BF00BF0837BD4680BD8000002005
:10062C00D0000020B4000020000000200C000020AE
:10063C00A800002090000020C000002080B582B0EF
:10064C0000AF7860A84B1B68012B40F08A80A74B49
:10065C001B680D2B19D00D2B3DDC0B2B02D00C2B5A
:10066C0026D038E000224FF48071A14801F0DBFB6A
:10067C0001224FF480619E4801F0D5FB01224FF41A
:10068C0000719B4801F0CFFB26E001224FF48071F2
:10069C00974801F0C8FB00224FF48061944801F0A8
:1006AC00C2FB01224FF40071914801F0BCFB13E036
:1006BC0001224FF480718E4801F0B5FB01224FF4FA
:1006CC0080618B4801F0AFFB00224FF40071884829
:1006DC0001F0A9FB00E000BF864B1B680D2B1AD064
:1006EC000D2B00F3F7800B2B02D00C2B26D0F1E056
:1006FC0000224FF400617E4801F095FB01224FF47B
:10070C0000517B4801F08FFB01224FF48051784857
:10071C0001F089FBE3E001224FF40061744801F021
:10072C0082FB00224FF40051714801F07CFB012246
:10073C004FF480516E4801F076FBD0E001224FF46B
:10074C0000616B4801F06FFB01224FF400516848C7
:10075C0001F069FB00224FF48051654801F063FB06
:10076C00BDE0614B1B68022B04D05F4B1B68032B55
:10077C0040F0B2807B681A2B00F2B08001A252F8D4
:10078C0023F000BFFD070008E9080008E90800088D
:10079C00E9080008E9080008E9080008E908000869
:1007AC00E9080008E9080008E9080008E908000859
:1007BC00E9080008E9080008E9080008E908000849
:1007CC00E9080008E9080008E9080008E908000839
:1007DC00E9080008E90800089F080008B5080008A7
:1007EC00CB080008450800086308000881080008C9
:1007FC004FF480713E4801F02EFB4FF400613C48F1
:10080C0001F029FB4FF40071394801F024FB4FF43F
:10081C008051374801F01FFB4FF48071344801F0D0
:10082C001AFB4FF48061324801F015FB4FF4005174
:10083C002F4801F010FB52E000F0C2F900224FF4F7
:10084C0080712B4801F0EFFA00224FF40051284838
:10085C0001F0E9FA43E000F0B3F900224FF48071A3
:10086C00234801F0E0FA00224FF48051204801F0B7
:10087C00DAFA34E000F0A4F900224FF400611C48CD
:10088C0001F0D1FA00224FF48061194801F0CBFA43
:10089C0025E04FF48071164801F0DDFA4FF4006149
:1008AC00134801F0D8FA1AE04FF40071104801F027
:1008BC00D2FA4FF480510E4801F0CDFA0FE04FF40C
:1008CC0080610B4801F0C7FA4FF40051084801F061
:1008DC00C2FA04E000BF02E000BF00E000BF00BFAE
:1008EC000837BD4680BD00BF6000002020000020FE
:1008FC00000801402400002080B500AF0020FFF765
:10090C009DFE7C4B1B680D2B29D00D2B6DDC0B2B0E
:10091C0002D00C2B46D068E0774B1B68194601209F
:10092C00FFF77EFD002000F089FB0346012B5ED112
:10093C00704B0D221A60714B1B68642202FB03F38F
:10094C001946002000F05AFB6C4B1B686A4A136076
:10095C00694B1B6819460120FFF762FD47E0664BA7
:10096C001B6819460120FFF75BFD002000F066FBB9
:10097C000346012B3DD15F4B0C221A60604B1B6868
:10098C00642202FB03F31946002000F037FB5C4B9A
:10099C001B68594A1360584B1B6819460120FFF716
:1009AC003FFD26E0544B1B6819460120FFF738FD2C
:1009BC00002000F043FB0346012B1CD14D4B0B22B6
:1009CC001A60504B1B68642202FB03F3194600208B
:1009DC0000F014FB4B4B1B68474A1360464B1B68DB
:1009EC0019460120FFF71CFD05E000BF04E000BF25
:1009FC0002E000BF00E000BF434B1B680D2B29D069
:100A0C000D2B6DDC0B2B02D00C2B46D068E03F4B32
:100A1C001B6819460220FFF703FD012000F00EFBB6
:100A2C000346012B5ED1384B0D221A60334B1B68E9
:100A3C00642202FB03F31946012000F0DFFA2F4B6E
:100A4C001B68324A1360314B1B6819460220FFF7B2
:100A5C00E7FC47E02D4B1B6819460220FFF7E0FC32
:100A6C00012000F0EBFA0346012B3DD1264B0C2262
:100A7C001A60234B1B68642202FB03F31946012006
:100A8C0000F0BCFA1E4B1B68204A13601F4B1B68FE
:100A9C0019460220FFF7C4FC26E01C4B1B681946C4
:100AAC000220FFF7BDFC012000F0C8FA0346012B21
:100ABC001CD1154B0B221A60124B1B68642202FBD3
:100ACC0003F31946012000F099FA0E4B1B680F4AEC
:100ADC0013600E4B1B6819460220FFF7A1FC05E0C2
:100AEC0000BF04E000BF02E000BF00E000BF00BF99
:100AFC0080BD00BF200000208C00002018000020CA
:100B0C001C0000201400002024000020CC00002039
:100B1C0080B500AF032000F091FA0346012B10D1F1
:100B2C006421032000F06AFA104B1B68013B0F4A4A
:100B3C0013600F4B1B68013B0D4A13600D4B0122D8
:100B4C001A600C4B1B68012B0ED10A4B00221A6049
:100B5C00064B1B6819460120FFF762FC044B1B680F
:100B6C0019460220FFF75CFC00BF80BD8C00002002
:100B7C00CC0000207C00002080B500AFFFF7C8FF40
:100B8C00022000F05BFA0346012B14D10A2102204B
:100B9C0000F034FA094B1B681846FFF7DBFB074BD8
:100BAC001B680133054A1360044B1B68032B02DDE1
:100BBC00024B00221A6000BF80BD00BF78000020ED
:100BCC0080B500AF01224FF48071114801F02BF970
:100BDC0001224FF480610E4801F025F901224FF4F7
:100BEC0000710B4801F01FF901224FF40061084815
:100BFC0001F019F901224FF40051054801F013F9E5
:100C0C0001224FF48051024801F00DF900BF80BD64
:100C1C000008014080B500AF00210120FFF700FC67
:100C2C0000210220FFF7FCFB00BF80BD80B582B025
:100C3C0000AF78607B681A2B00F29E8001A252F8FC
:100C4C0023F000BFF70C0008850D0008850D000887
:100C5C00850D0008850D0008850D0008850D000820
:100C6C00850D0008850D0008850D0008850D000810
:100C7C00850D0008850D0008850D0008850D000800
:100C8C00850D0008850D0008850D0008850D0008F0
:100C9C00850D0008850D0008310D0008690D000850
:100CAC004D0D0008BD0C0008DB0C0008130D0008EE
:100CBC00052000F0C3F90346002B5FD04FF4FA7106
:100CCC00052000F09BF91820FFF7B8FC56E0052032
:100CDC0000F0B4F90346002B52D0C821052000F0D7
:100CEC008DF91920FFF7AAFC4AE0052000F0A6F9BF
:100CFC000346002B46D01921052000F07FF9002077
:100D0C00FFF79CFC3EE0052000F098F90346002B11
:100D1C003AD04FF4FA71052000F070F91A20FFF761
:100D2C008DFC31E0052000F089F90346002B2DD015
:100D3C003221052000F062F91520FFF77FFC25E039
:100D4C00052000F07BF90346002B21D03221052031
:100D5C0000F054F91720FFF771FC19E0052000F0A2
:100D6C006DF90346002B15D03221052000F046F911
:100D7C001620FFF763FC0DE000BF0CE000BF0AE09B
:100D8C0000BF08E000BF06E000BF04E000BF02E0C7
:100D9C0000BF00E000BF00BF0837BD4680BD00BFEC
:100DAC0080B500AF00F03EFD00F01CF800F0A2F89A
:100DBC0000F054F8094801F093FC00F089F9042084
:100DCC0000F03CF90346002BF7D08021044801F0D9
:100DDC0042F83221042000F011F9EEE7DC0000208B
:100DEC000008014080B590B000AF07F1180328222D
:100DFC000021184602F024F83B1D00221A605A60AC
:100E0C009A60DA601A610223BB610123BB62102372
:100E1C00FB6200237B6307F11803184601F034F8DA
:100E2C000346002B01D000F0E3F80F237B60002376
:100E3C00BB600023FB6000233B6100237B613B1DF7
:100E4C000021184601F0A0FA0346002B01D000F057
:100E5C00CFF800BF4037BD4680BD000080B586B0DE
:100E6C0000AF07F1080300221A605A609A60DA603A
:100E7C003B4600221A605A601D4B4FF080421A60AC
:100E8C001B4B41F63F725A60194B00229A60184B6B
:100E9C000922DA60164B00221A61154B00229A6166
:100EAC00134801F0CDFB0346002B01D000F0A0F855
:100EBC004FF48053BB6007F1080319460C4801F04E
:100ECC004BFD0346002B01D000F092F800233B6051
:100EDC0000237B603B461946054801F023FF03467F
:100EEC00002B01D000F084F800BF1837BD4680BD40
:100EFC00DC00002080B588B000AF07F110030022A1
:100F0C001A605A609A60DA602F4B9B692E4A43F044
:100F1C00100393612C4B9B6903F01003FB60FB687F
:100F2C00294B9B69284A43F004039361264B9B6928
:100F3C0003F00403BB60BB68234B9B69224A43F05C
:100F4C0008039361204B9B6903F008037B607B686B
:100F5C00002243F6FF711D4800F065FF002240F2AD
:100F6C00FF711B4800F05FFF4FF460433B610023AF
:100F7C007B610123BB6107F110031946154800F092
:100F8C00C1FD43F6FF733B6101237B610023BB6111
:100F9C000223FB6107F1100319460C4800F0B2FD67
:100FAC0040F2FF733B6101237B610023BB61022391
:100FBC00FB6107F110031946054800F0A3FD00BFC3
:100FCC002037BD4680BD00BF001002400008014024
:100FDC00000C01400010014080B582B000AF786079
:100FEC0000F046F8FFF78CFA00BF0837BD4680BD0D
:100FFC0080B400AF72B600BFFEE7000080B483B0CF
:10100C0000AF786039607B68002B0DDB7B68132B9D
:10101C000ADC08497B683A6841F82320064A7B6859
:10102C00002142F8231000E000BF0C37BD4680BC05
:10103C00704700BF240100207401002080B483B0ED
:10104C0000AF7860094A7B6852F82330012B06D137
:10105C00064A7B68002142F82310012300E000239C
:10106C0018460C37BD4680BC704700BF7401002089
:10107C0080B483B000AF00237B601CE0124A7B6815
:10108C0052F82330002B08DD0F4A7B6852F82330CE
:10109C005A1E0D497B6841F823200B4A7B6852F895
:1010AC002330002B04D1094A7B68012142F823101C
:1010BC007B6801337B607B68132BDFDD00BF00BFD7
:1010CC000C37BD4680BC7047240100207401002001
:1010DC0080B500AFAD4B1B68032B00F2E78201A279
:1010EC0052F823F001110008591100089F11000853
:1010FC007D130008FFF764FDA44B01221A60A44B7A
:10110C001B68642202FB03F319460020FFF776FFED
:10111C00A04B1B68642202FB03F319460120FFF766
:10112C006DFF0A210220FFF769FF64210320FFF7FE
:10113C0065FF32210520FFF761FF954B1B68964A2E
:10114C001360944B1B68954A1360B4E20020FFF7C0
:10115C00D3FBFFF711FD0020FFF7B8F90346002B76
:10116C0000F0A682894B02221A608D4B18221A605D
:10117C0002210220FFF754F919210220FFF73EFF4C
:10118C0032210520FFF73AFFFFF744FDFFF718FD6A
:10119C0091E2834B1B681A2B69D01A2B00F39F80AA
:1011AC00182B02D0192B2FD099E07D4B1B68182BD4
:1011BC0002D07B4B18221A600120FFF787F90346F7
:1011CC00002B07D0764B19221A6002210220FFF760
:1011DC0027F984E00220FFF731FF0346002B79D07A
:1011EC000A210220FFF70AFF6E4B1B685A1C6D493F
:1011FC000A601846FFF7AEF86A4B1B68032B69DDD3
:10120C00684B00221A6065E0654B1B68192B02D0F5
:10121C00634B19221A600520FFF710FF0346002BC1
:10122C000BD05F4B1B681A2B03D05D4B1A221A6034
:10123C0055E002210220FFF7F3F80220FFF7FEFE33
:10124C000346002B48D00A210220FFF7D7FE554B4E
:10125C001B685A1C53490A601846FFF77BF8514B20
:10126C001B68032B38DD4F4B00221A6034E04C4BCB
:10127C001B681A2B02D04A4B1A221A600120FFF766
:10128C0025F90346002B0BD0454B1B68182B02D0BD
:10129C00434B18221A6002210220FFF7C1F81EE00E
:1012AC000220FFF7CBFE0346002B17D00A210220A9
:1012BC00FFF7A4FE3B4B1B685A1C3A490A601846C0
:1012CC00FFF748F8374B1B68032B07DD354B002223
:1012DC001A6003E000BF02E000BF00E000BF002086
:1012EC00FFF7F4F80346002B21D0284B03221A6099
:1012FC002D4B1F221A602A4B15221A600A2102203C
:10130C00FFF77CFE32210520FFF778FEFFF758FC33
:10131C001F4B1B68254A1360244B1B681946012080
:10132C00FFF77EF803210220FFF77AF8C3E11C4B8C
:10133C001B681846FFF77AFC0220FFF77FFE034676
:10134C00002B00F0B7810A210220FFF757FE154B46
:10135C001B685A1C13490A601846FEF7FBFF114B19
:10136C001B68032B40F3A6810E4B00221A60A1E1EF
:10137C000D4B1B68212B00F00181212B00F3758193
:10138C001F2B15D0202B00F083806EE16000002015
:10139C0014000020180000208C000020CC0000203D
:1013AC00640000207800002028000020C4010020E8
:1013BC00B14B1B68152B04D0AF4B15221A60FFF7ED
:1013CC00FFFBAD4B1B681846FFF730FC0120FFF705
:1013DC007DF80346002B11D0A84B1B680133A74A9C
:1013EC001360A64B1B68632B02DDA44B00221A6012
:1013FC00A24B1B6819460120FFF712F80220FFF7D9
:10140C001DFE0346002B12D00A210220FFF7F6FD29
:10141C009B4B1B685A1C9A490A601846FEF79AFFA8
:10142C00974B1B68032B02DD954B00221A600220A0
:10143C00FFF74CF80346002B08D0904B1B68914AE1
:10144C001360914B1B688D4A13602EE10020FFF74F
:10145C003DF80346002B00F00A818C4B20221A60C9
:10146C00854B17221A600A210220FFF7C7FD322193
:10147C000520FFF7C3FDFFF7A3FB804B1B68194644
:10148C000120FEF7CDFF03210220FEF7C9FF0CE17E
:10149C00794B1B68172B04D0774B17221A60FFF778
:1014AC008FFB754B1B681846FFF7C0FB0120FFF73D
:1014BC000DF80346002B11D0704B1B6801336F4A9B
:1014CC0013606E4B1B68632B02DD6C4B00221A60A1
:1014DC006A4B1B6819460120FEF7A2FF0220FFF79A
:1014EC00ADFD0346002B12D00A210220FFF786FD2A
:1014FC00634B1B685A1C62490A601846FEF72AFFA8
:10150C005F4B1B68032B02DD5D4B00221A6002202F
:10151C00FEF7DCFF0346002B0ED0584B1B685A4AD3
:10152C001360564B1B6819460120FEF779FF032107
:10153C000220FEF775FFB8E00020FEF7C7FF034658
:10154C00002B00F09680514B21221A60504B1B68E7
:10155C004A4A1360484B16221A600A210220FFF7F0
:10156C004DFD32210520FFF749FDFFF729FB434BC9
:10157C001B6819460120FEF753FF96E03E4B1B6893
:10158C00162B04D03C4B16221A60FFF719FB3A4B72
:10159C001B681846FFF74AFB0120FEF797FF03462E
:1015AC00002B11D0354B1B680133344A1360334B7D
:1015BC001B68632B02DD314B00221A602F4B1B681A
:1015CC0019460120FEF72CFF0220FFF737FD0346DA
:1015DC00002B12D00A210220FFF710FD284B1B68AC
:1015EC005A1C27490A601846FEF7B4FE244B1B68A8
:1015FC00032B02DD224B00221A600220FEF766FF4D
:10160C000346002B04D01D4B1B68214A13604CE091
:10161C000020FEF75BFF0346002B45D01D4B01223B
:10162C001A60184B1B681C4A1360174B1B681B4A2B
:10163C0013601B4B0B221A601A4B0D221A60114BB4
:10164C001B68642202FB03F319460020FFF7D6FC4B
:10165C000D4B1B68642202FB03F319460120FFF7B4
:10166C00CDFC0020FEF7EAFF1FE000BF23E000BF27
:10167C0021E000BF1FE000BF64000020C401002077
:10168C007800002014000020180000202800002002
:10169C001C000020600000208C000020CC000020EA
:1016AC00200000202400002000BF04E000BF02E066
:1016BC0000BF00E000BF00BF80BD00BF80B485B09C
:1016CC0000AF154B9B69144A43F001039361124B15
:1016DC009B6903F00103BB60BB680F4BDB690E4ACF
:1016EC0043F08053D3610C4BDB6903F080537B6078
:1016FC007B680A4B5B68FB60FB6823F0E063FB6074
:10170C00FB6843F08063FB60044AFB68536000BFD6
:10171C001437BD4680BC70470010024000000140E9
:10172C0080B584B000AF78607B681B68B3F1804FE4
:10173C0013D10C4BDB690B4A43F00103D361094B0A
:10174C00DB6903F00103FB60FB68002200211C2015
:10175C0000F0A1F91C2000F0BAF900BF1037BD460B
:10176C0080BD00BF0010024080B400AFFEE780B423
:10177C0000AFFEE780B400AFFEE780B400AFFEE739
:10178C0080B400AFFEE780B400AF00BFBD4680BCA4
:10179C00704780B400AF00BFBD4680BC704780B4BA
:1017AC0000AF00BFBD4680BC704780B500AF00F0F5
:1017BC007FF800BF80BD000080B500AF024800F08C
:1017CC00DBFF00BF80BD00BFDC00002080B400AF99
:1017DC0000BFBD4680BC7047FFF7F8FF0B480C49B3
:1017EC000C4A002302E0D458C4500433C4188C4271
:1017FC00F9D3094A094C002301E013600432A242D8
:10180C00FBD301F0F9FAFFF7CBFA70470000002088
:10181C0044000020A02E000844000020CC01002031
:10182C00FEE7000080B500AF084B1B68074A43F089
:10183C0010031360032000F023F90F2000F008F8C8
:10184C00FFF73CFF0023184680BD00BF002002407C
:10185C0080B582B000AF7860124B1A68124B1B78BF
:10186C0019464FF47A73B3FBF1F3B2FBF3F318465A
:10187C0000F03BF90346002B01D001230EE07B68FE
:10188C000F2B0AD8002279684FF0FF3000F003F9D3
:10189C00064A7B681360002300E0012318460837D2
:1018AC00BD4680BD38000020400000203C000020D8
:1018BC0080B400AF054B1B781A46054B1B681344CC
:1018CC00034A136000BFBD4680BC70474000002037
:1018DC00C801002080B400AF024B1B681846BD46FF
:1018EC0080BC7047C801002080B485B000AF786020
:1018FC007B6803F00703FB600C4BDB68BB60BA68CA
:10190C004FF6FF031340BB60FB681A02BB6813431E
:10191C0043F0BF6343F40033BB60044ABB68D3603D
:10192C0000BF1437BD4680BC704700BF00ED00E01F
:10193C0080B400AF044BDB681B0A03F007031846A6
:10194C00BD4680BC704700BF00ED00E080B483B0A2
:10195C0000AF0346FB7197F90730002B0BDBFB79CB
:10196C0003F01F02064997F907305B09012000FAC2
:10197C0002F241F8232000BF0C37BD4680BC7047F3
:10198C0000E100E080B483B000AF03463960FB7126
:10199C0097F90730002B0ADB3B68DAB20C4997F950
:1019AC0007301201D2B20B4483F800230AE03B68E3
:1019BC00DAB20849FB7903F00F03043B1201D2B2EF
:1019CC000B441A7600BF0C37BD4680BC704700BF75
:1019DC0000E100E000ED00E080B489B000AFF860F9
:1019EC00B9607A60FB6803F00703FB61FB69C3F124
:1019FC000703042B28BF0423BB61FB690433062BAC
:101A0C0002D9FB69033B00E000237B614FF0FF32FE
:101A1C00BB6902FA03F3DA43BB681A407B699A404C
:101A2C004FF0FF317B6901FA03F3D9437B680B401C
:101A3C00134318462437BD4680BC704780B582B02E
:101A4C0000AF78607B68013BB3F1807F01D3012349
:101A5C000FE00A4A7B68013B53600F214FF0FF30C7
:101A6C00FFF790FF054B00229A60044B07221A6087
:101A7C00002318460837BD4680BD00BF10E000E0CB
:101A8C0080B582B000AF78607868FFF72DFF00BF9B
:101A9C000837BD4680BD80B586B000AF0346B9603F
:101AAC007A60FB7300237B61FFF742FF78617A68F1
:101ABC00B9687869FFF790FF024697F90F30114625
:101ACC001846FFF75FFF00BF1837BD4680BD80B5D5
:101ADC0082B000AF0346FB7197F907301846FFF749
:101AEC0035FF00BF0837BD4680BD80B582B000AF62
:101AFC0078607868FFF7A2FF034618460837BD46A2
:101B0C0080BD000080B48BB000AF786039600023DA
:101B1C007B6200233B6248E101227B6A02FA03F3F9
:101B2C00FB613B681B68FA691340BB61BA69FB69CE
:101B3C009A4240F037813B685B68A34A93425ED07F
:101B4C00A14A934275D8A14A934258D09F4A9342D6
:101B5C006FD89F4A934252D09D4A934269D89D4A6E
:101B6C0093424CD09B4A934263D89B4A934246D0B3
:101B7C00994A93425DD8122B2AD8122B59D801A21C
:101B8C0052F823F00B1C0008E51B0008F71B00089B
:101B9C00391C00083F1C00083F1C00083F1C0008B3
:101BAC003F1C00083F1C00083F1C00083F1C00089D
:101BBC003F1C00083F1C00083F1C00083F1C00088D
:101BCC003F1C00083F1C0008ED1B0008011C00080E
:101BDC00824A934213D02CE03B68DB683B6229E0DD
:101BEC003B68DB6804333B6224E03B68DB6808330A
:101BFC003B621FE03B68DB680C333B621AE03B68DE
:101C0C009B68002B02D104233B6213E03B689B686A
:101C1C00012B05D108233B627B68FA691A6109E044
:101C2C0008233B627B68FA695A6103E000233B623C
:101C3C0000E000BFBB69FF2B01D87B6801E07B682B
:101C4C0004337B61BB69FF2B02D87B6A9B0002E0EB
:101C5C007B6A083B9B003B617B691A680F213B69DF
:101C6C0001FA03F3DB431A40396A3B6901FA03F3C7
:101C7C001A437B691A603B685B6803F08053002B46
:101C8C0000F09080564B9B69554A43F001039361D9
:101C9C00534B9B6903F00103BB60BB68514A7B6AE1
:101CAC009B08023352F82330FB607B6A03F003037A
:101CBC009B000F2202FA03F3DB43FA681340FB602C
:101CCC007B68494A93420DD07B68484A934207D0BF
:101CDC007B68474A934201D1022304E0032302E0CC
:101CEC00012300E000237A6A02F003029200934081
:101CFC00FA681343FB603B497B6A9B080233FA6822
:101D0C0041F823203B685B6803F48013002B06D05A
:101D1C00384B9A683749BB6913438B6006E0354BE7
:101D2C009A68BB69DB43334913408B603B685B6843
:101D3C0003F40013002B06D02E4BDA682D49BB6937
:101D4C001343CB6006E02B4BDA68BB69DB432949B4
:101D5C001340CB603B685B6803F40033002B06D068
:101D6C00244B5A682349BB6913434B6006E0214B53
:101D7C005A68BB69DB431F4913404B603B685B6887
:101D8C0003F48033002B06D01A4B1A681949BB692F
:101D9C0013430B6006E0174B1A68BB69DB4315490C
:101DAC0013400B607B6A01337B623B681A687B6A69
:101DBC0022FA03F3002B7FF4AFAE00BF00BF2C3729
:101DCC00BD4680BC704700BF0000321000003110CF
:101DDC000000221000002110000012100000111051
:101DEC00001002400000014000080140000C0140BE
:101DFC00001001400004014080B485B000AF786051
:101E0C000B467B807B689A687B881340002B02D042
:101E1C000123FB7301E00023FB73FB7B1846143793
:101E2C00BD4680BC704780B483B000AF78600B4671
:101E3C007B8013467B707B78002B03D07A887B6881
:101E4C001A6103E07B881A047B681A6100BF0C37A7
:101E5C00BD4680BC704780B485B000AF78600B463F
:101E6C007B807B68DB68FB607A88FB6813401A0414
:101E7C00FB68D9437B880B401A437B681A6100BF0F
:101E8C001437BD4680BC704780B586B000AF786013
:101E9C007B68002B01D101236CE27B681B6803F08B
:101EAC000103002B00F08780924B5B6803F00C035E
:101EBC00042B0CD08F4B5B6803F00C03082B12D156
:101ECC008C4B5B6803F48033B3F5803F0BD1894BAB
:101EDC001B6803F40033002B6CD07B685B68002B11
:101EEC0068D1012346E27B685B68B3F5803F06D17D
:101EFC00804B1B687F4A43F4803313602EE07B6871
:101F0C005B68002B0CD17B4B1B687A4A23F4803323
:101F1C001360784B1B68774A23F4802313601DE011
:101F2C007B685B68B3F5A02F0CD1724B1B68714AB0
:101F3C0043F4802313606F4B1B686E4A43F4803369
:101F4C0013600BE06B4B1B686A4A23F480331360FD
:101F5C00684B1B68674A23F4802313607B685B68BB
:101F6C00002B13D0FFF7B6FC386108E0FFF7B2FC8A
:101F7C0002463B69D31A642B01D90323FAE15D4B6A
:101F8C001B6803F40033002BF0D014E0FFF7A2FC25
:101F9C00386108E0FFF79EFC02463B69D31A642BBC
:101FAC0001D90323E6E1534B1B6803F40033002BE8
:101FBC00F0D100E000BF7B681B6803F00203002B2C
:101FCC0063D04C4B5B6803F00C03002B0BD0494BDC
:101FDC005B6803F00C03082B1CD1464B5B6803F4C5
:101FEC008033002B16D1434B1B6803F00203002BEC
:101FFC0005D07B681B69012B01D00123BAE13D4B55
:10200C001B6823F0F8027B685B69DB0039491343DA
:10201C000B603AE07B681B69002B20D0364B012209
:10202C001A60FFF757FC386108E0FFF753FC0246D3
:10203C003B69D31A022B01D903239BE12D4B1B685F
:10204C0003F00203002BF0D02A4B1B6823F0F8029C
:10205C007B685B69DB00274913430B6015E0264B5B
:10206C0000221A60FFF736FC386108E0FFF732FCFB
:10207C0002463B69D31A022B01D903237AE11D4B8B
:10208C001B6803F00203002BF0D17B681B6803F084
:10209C000803002B3AD07B689B69002B19D0174B97
:1020AC0001221A60FFF716FC386108E0FFF712FCFA
:1020BC0002463B69D31A022B01D903235AE10D4B7B
:1020CC005B6A03F00203002BF0D0012000F09AFAB7
:1020DC001CE00A4B00221A60FFF7FCFB38610FE092
:1020EC00FFF7F8FB02463B69D31A022B08D90323EE
:1020FC0040E100BF00100240000042428004424216
:10210C009E4B5B6A03F00203002BE9D17B681B68D2
:10211C0003F00403002B00F0A6800023FB75974B03
:10212C00DB6903F08053002B0DD1944BDB69934A90
:10213C0043F08053D361914BDB6903F08053BB6058
:10214C00BB680123FB758E4B1B6803F48073002B5B
:10215C0018D18B4B1B688A4A43F480731360FFF7CA
:10216C00B9FB386108E0FFF7B5FB02463B69D31AAF
:10217C00642B01D90323FDE0814B1B6803F48073AE
:10218C00002BF0D07B68DB68012B06D17B4B1B6AE4
:10219C007A4A43F0010313622DE07B68DB68002B65
:1021AC000CD1764B1B6A754A23F001031362734BF7
:1021BC001B6A724A23F0040313621CE07B68DB6821
:1021CC00052B0CD16D4B1B6A6C4A43F00403136254
:1021DC006A4B1B6A694A43F0010313620BE0674BBD
:1021EC001B6A664A23F001031362644B1B6A634A41
:1021FC0023F0040313627B68DB68002B15D0FFF718
:10220C0069FB38610AE0FFF765FB02463B69D31AAC
:10221C0041F28832934201D90323ABE0574B1B6A3E
:10222C0003F00203002BEED014E0FFF753FB3861F0
:10223C000AE0FFF74FFB02463B69D31A41F28832A2
:10224C00934201D9032395E04C4B1B6A03F0020324
:10225C00002BEED1FB7D012B05D1484BDB69474AA6
:10226C0023F08053D3617B68DB69002B00F0818005
:10227C00424B5B6803F00C03082B61D07B68DB6975
:10228C00022B46D13F4B00221A60FFF723FB38612B
:10229C0008E0FFF71FFB02463B69D31A022B01D95A
:1022AC00032367E0354B1B6803F00073002BF0D160
:1022BC007B681B6AB3F5803F08D1304B5B6823F415
:1022CC0000327B689B682D4913434B602B4B5B683A
:1022DC0023F474127B68196A7B685B6A0B43274989
:1022EC0013434B60274B01221A60FFF7F3FA386156
:1022FC0008E0FFF7EFFA02463B69D31A022B01D92B
:10230C00032337E01D4B1B6803F00073002BF0D048
:10231C002FE01C4B00221A60FFF7DCFA386108E052
:10232C00FFF7D8FA02463B69D31A022B01D90323D3
:10233C0020E0124B1B6803F00073002BF0D118E067
:10234C007B68DB69012B01D1012313E00B4B5B682C
:10235C00FB60FB6803F480327B681B6A9A4206D1EF
:10236C00FB6803F470127B685B6A9A4201D001230C
:10237C0000E0002318461837BD4680BD001002400F
:10238C00007000406000424280B584B000AF7860BD
:10239C0039607B68002B01D10123D0E06A4B1B68AC
:1023AC0003F007033A689A4210D9674B1B6823F075
:1023BC00070265493B6813430B60634B1B6803F0D2
:1023CC0007033A689A4201D00123B8E07B681B6886
:1023DC0003F00203002B20D07B681B6803F004037E
:1023EC00002B05D0594B5B68584A43F4E0635360AB
:1023FC007B681B6803F00803002B05D0534B5B680C
:10240C00524A43F460535360504B5B6823F0F00224
:10241C007B689B684D4913434B607B681B6803F0DA
:10242C000103002B40D07B685B68012B07D1474B25
:10243C001B6803F40033002B15D101237FE07B686C
:10244C005B68022B07D1414B1B6803F00073002B18
:10245C0009D1012373E03D4B1B6803F00203002BF1
:10246C0001D101236BE0394B5B6823F003027B68DD
:10247C005B68364913434B60FFF72CFAF8600AE0AF
:10248C00FFF728FA0246FB68D31A41F288329342CE
:10249C0001D9032353E02D4B5B6803F00C027B68DE
:1024AC005B689B009A42EBD1274B1B6803F0070338
:1024BC003A689A4210D2244B1B6823F00702224937
:1024CC003B6813430B60204B1B6803F007033A680F
:1024DC009A4201D0012332E07B681B6803F00403AD
:1024EC00002B08D0194B5B6823F4E0627B68DB6837
:1024FC00164913434B607B681B6803F00803002BE1
:10250C0009D0124B5B6823F460527B681B69DB00BB
:10251C000E4913434B6000F021F802460B4B5B68ED
:10252C001B0903F00F030A49CB5C22FA03F3094A97
:10253C001360094B1B681846FFF78AF900231846ED
:10254C001037BD4680BD00BF002002400010024085
:10255C00742E0008380000203C00002080B487B0A6
:10256C0000AF0023FB600023BB6000237B610023D2
:10257C007B6000233B611E4B5B68FB60FB6803F0D8
:10258C000C03042B02D0082B03D027E0194B3B6122
:10259C0027E0FB689B0C03F00F03174AD35C7B60AE
:1025AC00FB6803F48033002B10D0114B5B685B0C81
:1025BC0003F00103114AD35CBB607B680D4A02FB3C
:1025CC0003F2BB68B2FBF3F37B6104E07B680C4A5B
:1025DC0002FB03F37B617B693B6102E0054B3B61D2
:1025EC0000BF3B6918461C37BD4680BC704700BF16
:1025FC000010024000127A00842E0008942E00086D
:10260C0000093D0080B485B000AF78600A4B1B68B0
:10261C000A4AA2FB03235B0A7A6802FB03F3FB6002
:10262C0000BFFB685A1EFA60002BF9D100BF00BF37
:10263C001437BD4680BC704738000020D34D621063
:10264C0080B582B000AF78607B68002B01D101238C
:10265C0041E07B6893F83D30DBB2002B06D17B6800
:10266C00002283F83C207868FFF75AF87B68022236
:10267C0083F83D207B681A687B6804331946104642
:10268C0000F056FA7B68012283F846207B68012211
:10269C0083F83E207B68012283F83F207B6801226F
:1026AC0083F840207B68012283F841207B6801225B
:1026BC0083F842207B68012283F843207B68012247
:1026CC0083F844207B68012283F845207B68012233
:1026DC0083F83D20002318460837BD4680BD000016
:1026EC0080B485B000AF78607B6893F83D30DBB286
:1026FC00012B01D0012335E07B68022283F83D20B9
:10270C007B681B68DA687B681B6842F00102DA6040
:10271C007B681B68164A934209D07B681B68B3F12F
:10272C00804F04D07B681B68124A934211D17B689E
:10273C001B689B6803F00703FB60FB68062B10D03B
:10274C007B681B681A687B681B6842F001021A6080
:10275C0007E07B681B681A687B681B6842F0010203
:10276C001A60002318461437BD4680BC704700BF62
:10277C00002C01400004004080B584B000AF7860AC
:10278C007B681B68DB68FB607B681B681B69BB6034
:10279C00BB6803F00203002B20D0FB6803F002039C
:1027AC00002B1BD07B681B686FF002021A617B68E0
:1027BC0001221A777B681B689B6903F00303002BCB
:1027CC0003D0786800F098F905E0786800F08BF990
:1027DC00786800F09AF97B6800221A77BB6803F0DE
:1027EC000403002B20D0FB6803F00403002B1BD048
:1027FC007B681B686FF004021A617B6802221A77EF
:10280C007B681B689B6903F44073002B03D07868CA
:10281C0000F072F905E0786800F065F9786800F06E
:10282C0074F97B6800221A77BB6803F00803002B4D
:10283C0020D0FB6803F00803002B1BD07B681B68BF
:10284C006FF008021A617B6804221A777B681B6898
:10285C00DB6903F00303002B03D0786800F04CF91C
:10286C0005E0786800F03FF9786800F04EF97B6875
:10287C0000221A77BB6803F01003002B20D0FB68F2
:10288C0003F01003002B1BD07B681B686FF0100249
:10289C001A617B6808221A777B681B68DB6903F472
:1028AC004073002B03D0786800F026F905E07868B7
:1028BC0000F019F9786800F028F97B6800221A7783
:1028CC00BB6803F00103002B0CD0FB6803F0010381
:1028DC00002B07D07B681B686FF001021A617868C7
:1028EC00FEF77AFBBB6803F08003002B0CD0FB686F
:1028FC0003F08003002B07D07B681B686FF080020D
:10290C001A61786800F06FFABB6803F04003002B83
:10291C000CD0FB6803F04003002B07D07B681B68CE
:10292C006FF040021A61786800F0F8F8BB6803F0A9
:10293C002003002B0CD0FB6803F02003002B07D0E6
:10294C007B681B686FF020021A61786800F042FA0D
:10295C0000BF1037BD4680BD80B584B000AF786035
:10296C0039600023FB737B6893F83C30012B01D159
:10297C000223B4E07B68012283F83C207B680222AE
:10298C0083F83D207B681B689B68BB60BB6823F0A9
:10299C007703BB60BB6823F47F43BB607B681B6819
:1029AC00BA689A603B681B68B3F5005F3ED0B3F51C
:1029BC00005F00F28780B3F5805F00F08680B3F58E
:1029CC00805F7FD8702B1AD0702B7BD8602B50D0A7
:1029DC00602B77D8502B3CD0502B73D8402B58D031
:1029EC00402B6FD8302B64D0302B6BD8202B60D081
:1029FC00202B67D8002B5CD0102B5AD062E07B6860
:102A0C0018683B6899683B685A683B68DB6800F05B
:102A1C006AF97B681B689B68BB60BB6843F07703F3
:102A2C00BB607B681B68BA689A604FE07B6818686B
:102A3C003B6899683B685A683B68DB6800F053F95F
:102A4C007B681B689A687B681B6842F480429A60BA
:102A5C003CE07B6818683B6859683B68DB681A4641
:102A6C0000F0CAF87B681B685021184600F021F969
:102A7C002CE07B6818683B6859683B68DB681A4631
:102A8C0000F0E8F87B681B686021184600F011F92B
:102A9C001CE07B6818683B6859683B68DB681A4621
:102AAC0000F0AAF87B681B684021184600F001F979
:102ABC000CE07B681A683B681B681946104600F0EE
:102ACC00F8F803E00123FB7300E000BF7B680122F0
:102ADC0083F83D207B68002283F83C20FB7B184662
:102AEC001037BD4680BD80B483B000AF786000BFA6
:102AFC000C37BD4680BC704780B483B000AF7860A3
:102B0C0000BF0C37BD4680BC704780B483B000AFAB
:102B1C00786000BF0C37BD4680BC704780B483B072
:102B2C0000AF786000BF0C37BD4680BC704700001A
:102B3C0080B485B000AF786039607B681B68FB603F
:102B4C007B682B4A934207D07B68B3F1804F03D04C
:102B5C007B68284A934208D1FB6823F07003FB6022
:102B6C003B685B68FA681343FB607B68204A9342BE
:102B7C0007D07B68B3F1804F03D07B681D4A93422A
:102B8C0008D1FB6823F44073FB603B68DB68FA6890
:102B9C001343FB60FB6823F080023B685B691343C3
:102BAC00FB607B68FA681A603B689A687B68DA623B
:102BBC003B681A687B689A627B680D4A934203D122
:102BCC003B681A697B681A637B6801225A617B68CF
:102BDC001B6903F00103002B05D07B681B6923F0F4
:102BEC0001027B681A6100BF1437BD4680BC704778
:102BFC00002C01400004004080B487B000AFF860A6
:102C0C00B9607A60FB681B6A7B61FB681B6A23F006
:102C1C000102FB681A62FB689B693B613B6923F00C
:102C2C00F0033B617B681B013A6913433B617B6991
:102C3C0023F00A037B617A69BB6813437B61FB68F1
:102C4C003A699A61FB687A691A6200BF1C37BD4603
:102C5C0080BC704780B487B000AFF860B9607A6010
:102C6C00FB681B6A7B61FB681B6A23F01002FB6824
:102C7C001A62FB689B693B613B6923F470433B61BF
:102C8C007B681B033A6913433B617B6923F0A00308
:102C9C007B61BB681B017A6913437B61FB683A69F2
:102CAC009A61FB687A691A6200BF1C37BD4680BC0A
:102CBC00704780B485B000AF786039607B689B68E2
:102CCC00FB60FB6823F07003FB603A68FB681343FE
:102CDC0043F00703FB607B68FA689A6000BF143707
:102CEC00BD4680BC704780B487B000AFF860B96057
:102CFC007A603B60FB689B687B617B6923F47F4354
:102D0C007B613B681A027B681A43BB6813437A6980
:102D1C0013437B61FB687A699A6000BF1C37BD4620
:102D2C0080BC704780B485B000AF786039607B6838
:102D3C0093F83C30012B01D1022341E07B68012246
:102D4C0083F83C207B68022283F83D207B681B685B
:102D5C005B68FB607B681B689B68BB60FB6823F04F
:102D6C007003FB603B681B68FA681343FB607B686D
:102D7C001B68FA685A607B681B68144A934209D036
:102D8C007B681B68B3F1804F04D07B681B68104ACA
:102D9C0093420CD1BB6823F08003BB603B685B683B
:102DAC00BA681343BB607B681B68BA689A607B681F
:102DBC00012283F83D207B68002283F83C2000230D
:102DCC0018461437BD4680BC704700BF002C01402C
:102DDC000004004080B483B000AF786000BF0C37B3
:102DEC00BD4680BC704780B483B000AF786000BF34
:102DFC000C37BD4680BC704770B500260C4D0D4C91
:102E0C00641BA410A64209D100F022F800260A4D3A
:102E1C000A4C641BA410A64205D170BD55F8043BA6
:102E2C0098470136EEE755F8043B98470136F2E730
:102E3C00982E0008982E0008982E00089C2E00084A
:102E4C0003460244934200D1704703F8011BF9E793
:102E5C00F8B500BFF8BC08BC9E467047F8B500BF7B
:082E6C00F8BC08BC9E4670474B
:102E74000000000000000000010203040607080926
:102E840002030405060708090A0B0C0D0E0F1010A7
:042E94000102000037
:042E980031010008FC
:042E9C000D0100081C
:102EA00000100140001001400010014000200040CF
:102EB0000080000009000000060000000300000080
:102EC0000B0000000D0000001F00000040792430BE
:102ED000191202780010000000127A0010000000A1
:042EE00001000000ED
:04000005080017E5F3
:00000001FF
