:020000040800F2
:1000000000280020191A0008A9190008AF190008D3
:10001000B5190008BB190008C1190008000000004C
:10002000000000000000000000000000C7190008E8
:10003000D319000800000000DF190008EB190008C0
:10004000611A0008611A0008611A0008611A0008A4
:10005000611A0008611A0008611A0008611A000894
:10006000611A0008611A0008611A0008611A000884
:10007000611A0008611A0008611A0008611A000874
:10008000611A0008611A0008611A0008611A000864
:10009000611A0008611A0008611A0008611A000854
:1000A000611A0008611A0008611A0008611A000844
:1000B000F9190008611A000800000000611A000820
:1000C000611A00080000000000000000611A00082A
:1000D00000000000611A0008611A0008000000001A
:1000E000611A0008611A0008611A00080000000087
:1000F0000000000000000000000000000000000000
:0C01000000000000000000005FF808F1A3
:10010C0010B5054C237833B9044B13B10448AFF345
:10011C0000800123237010BD44000020000000006B
:10012C009030000808B5034B1BB103490348AFF3EB
:10013C00008008BD0000000048000020903000083E
:10014C0080B582B000AF786039607B68012B03D03A
:10015C007B68022B40F0F1803B68002BC0F2EF80F3
:10016C003B68092B00F3EB807B68012B03D07B6889
:10017C00022B71D0E4E0744A3B6813441B7803F003
:10018C000103002B14BF01230023DBB21A4601210B
:10019C006E4801F062FF6C4A3B6813441B7803F015
:1001AC000203002B14BF01230023DBB21A460221E9
:1001BC00664801F052FF644A3B6813441B7803F015
:1001CC000403002B14BF01230023DBB21A460421C5
:1001DC005E4801F042FF5C4A3B6813441B7803F015
:1001EC000803002B14BF01230023DBB21A4608219D
:1001FC00564801F032FF544A3B6813441B7803F015
:10020C001003002B14BF01230023DBB21A4610216C
:10021C004E4801F022FF4C4A3B6813441B7803F014
:10022C002003002B14BF01230023DBB21A4620212C
:10023C00464801F012FF444A3B6813441B7803F014
:10024C004003002B14BF01230023DBB21A464021CC
:10025C003E4801F002FF73E03B4A3B6813441B78B5
:10026C0003F00103002B14BF01230023DBB21A4659
:10027C000121374801F0F1FE334A3B6813441B78E7
:10028C0003F00203002B14BF01230023DBB21A4638
:10029C0002212F4801F0E1FE2B4A3B6813441B78E6
:1002AC0003F00403002B14BF01230023DBB21A4616
:1002BC000421274801F0D1FE234A3B6813441B78E4
:1002CC0003F00803002B14BF01230023DBB21A46F2
:1002DC0008211F4801F0C1FE1B4A3B6813441B78E0
:1002EC0003F01003002B14BF01230023DBB21A46CA
:1002FC001021174801F0B1FE134A3B6813441B78D8
:10030C0003F02003002B14BF01230023DBB21A4699
:10031C0020210F4801F0A1FE0B4A3B6813441B78C7
:10032C0003F04003002B14BF01230023DBB21A4659
:10033C004021074801F091FE02E000BF00E000BF41
:10034C000837BD4680BD00BF2C00002000080140CE
:10035C00000C014080B582B000AF78600122802192
:10036C002D4801F07AFE01224FF480712A4801F0E9
:10037C0074FE01224FF40071274801F06EFE012239
:10038C004FF48061244801F068FE7B68032B3ED853
:10039C0001A252F823F000BFB5030008CD030008FA
:1003AC00E7030008010400081C4B1B6819460120D8
:1003BC00FFF7C6FE00228021174801F04EFE27E011
:1003CC00164B5B6819460120FFF7BAFE00224FF46A
:1003DC008071114801F041FE1AE0104B9B681946E0
:1003EC000220FFF7ADFE00224FF400710A4801F025
:1003FC0034FE0DE0094BDB6819460220FFF7A0FE26
:10040C0000224FF48061044801F027FE00E000BF99
:10041C0000BF0837BD4680BD000C014068000020BD
:10042C0080B483B000AF786039607B68012B03D057
:10043C007B68022B18D02FE03B681A4A82FB031210
:10044C009210DB17D31A184A13603968154B83FBCB
:10045C0001239A10CB17D21A13469B0013445B004E
:10046C00CA1A114B5A6017E03B680E4A82FB031202
:10047C009210DB17D31A0C4A93603968094B83FB33
:10048C0001239A10CB17D21A13469B0013445B001E
:10049C00CA1A054BDA6000BF00BF0C37BD4680BCE2
:1004AC00704700BF676666666800002080B483B042
:1004BC0000AF7860044A7B68012142F8231000BF2A
:1004CC000C37BD4680BC7047E000002080B483B080
:1004DC0000AF7860094A7B6852F82330012B06D1B3
:1004EC00064A7B68002142F82310012300E0002318
:1004FC0018460C37BD4680BC704700BFE00000209A
:10050C0080B582B000AF00237B607EE0434A7B68FD
:10051C0052F8232042497B6841F82320414A7B68EA
:10052C0052F823203D497B6841F823203E4A7B68E2
:10053C0052F823203D497B6831F813301946104698
:10054C0001F074FD03461946364A7B6842F82310C5
:10055C00344A7B6852F8232030497B6851F82330A9
:10056C009A424FD12D4A7B6852F823202C497B6844
:10057C0051F823309A4245D12D4A7B6852F82320FA
:10058C0027497B6851F823309A4216D0244A7B685D
:10059C0052F8232026497B6841F82320244A7B68A3
:1005AC0052F82330002B2DD17868FFF77FFF214ABA
:1005BC007B68C82142F8231024E01D4A7B6852F85E
:1005CC002330002B1ED11B4A7B6852F82330002BA2
:1005DC0018DD184A7B6852F823305A1E15497B687F
:1005EC0041F82320134A7B6852F82330002B09D1A1
:1005FC00104A7B68C82142F823100F4A7B680121FE
:10060C0042F823107B6801337B607B68022B7FF7F9
:10061C007DAF00BF00BF0837BD4680BDC4000020C1
:10062C0014010020F8000020000000200C00002025
:10063C00EC000020D40000200401002080B582B022
:10064C0000AF7860A54B1B68012B40F08A80A44B4F
:10065C001B680D2B19D00D2B3DDC0B2B02D00C2B5A
:10066C0026D038E000224FF480719E4801F0F5FC52
:10067C0001224FF480619B4801F0EFFC01224FF402
:10068C000071984801F0E9FC26E001224FF48071DA
:10069C00944801F0E2FC00224FF48061914801F093
:1006AC00DCFC01224FF400718E4801F0D6FC13E003
:1006BC0001224FF480718B4801F0CFFC01224FF4E2
:1006CC008061884801F0C9FC00224FF40071854814
:1006DC0001F0C3FC00E000BF834B1B680D2B1AD04C
:1006EC000D2B00F3F2800B2B02D00C2B26D0ECE060
:1006FC0000224FF400617B4801F0AFFC01224FF463
:10070C000051784801F0A9FC01224FF48051754842
:10071C0001F0A3FCDEE001224FF40061714801F00E
:10072C009CFC00224FF400516E4801F096FC012213
:10073C004FF480516B4801F090FCCBE001224FF458
:10074C000061684801F089FC01224FF400516548B2
:10075C0001F083FC00224FF48051624801F07DFCD3
:10076C00B8E05E4B1B68022B04D05C4B1B68032B60
:10077C0040F0AD807B681A2B00F2AB8001A252F8DE
:10078C0023F000BFFD070008DF080008DF080008A1
:10079C00DF080008DF080008DF080008DF08000891
:1007AC00DF080008DF080008DF080008DF08000881
:1007BC00DF080008DF080008DF080008DF08000871
:1007CC00DF080008DF080008DF080008DF08000861
:1007DC00DF080008DF08000895080008AB080008CF
:1007EC00C10800083B0800085908000877080008F1
:1007FC004FF480713B4801F048FC4FF400613948DC
:10080C0001F043FC4FF40071364801F03EFC4FF40C
:10081C008051344801F039FC4FF48061314801F0CB
:10082C0034FC4FF400512F4801F02FFC52E000F043
:10083C00ABF900224FF480712A4801F00EFC002223
:10084C004FF40051274801F008FC43E000F09CF9FC
:10085C0000224FF48071234801F0FFFB00224FF47B
:10086C008051204801F0F9FB34E000F08DF90022B2
:10087C004FF400611B4801F0F0FB00224FF4806143
:10088C00184801F0EAFB25E04FF48071154801F09F
:10089C00FCFB4FF40061134801F0F7FB1AE04FF436
:1008AC000071104801F0F1FB4FF480510D4801F03C
:1008BC00ECFB0FE04FF480610A4801F0E6FB4FF4CB
:1008CC000051084801F0E1FB04E000BF02E000BF6A
:1008DC0000E000BF00BF0837BD4680BD60000020AF
:1008EC0020000020000801402400002080B500AF4B
:1008FC000020FFF7A3FE704B1B680D2B25D00D2B92
:10090C0061DC0B2B02D00C2B3ED05CE06B4B1B68DC
:10091C0019460120FFF784FD694B1B68002B54D14D
:10092C00654B0D221A60674B1B68642202FB03F3B4
:10093C00634A1360634B1B68604A13605F4B1B6810
:10094C0019460120FFF76CFD3FE05C4B1B68194614
:10095C000120FFF765FD5A4B1B68002B37D1564B16
:10096C000C221A60584B1B68642202FB03F3544A96
:10097C001360554B1B68514A1360504B1B6819464A
:10098C000120FFF74DFD22E04C4B1B68194601205E
:10099C00FFF746FD4A4B1B68002B1AD1464B0B2226
:1009AC001A604A4B1B68642202FB03F3444A13602F
:1009BC00464B1B68414A1360404B1B68194601208B
:1009CC00FFF72EFD05E000BF04E000BF02E000BF12
:1009DC0000E000BF3E4B1B680D2B25D00D2B61DCBE
:1009EC000B2B02D00C2B3ED05CE03A4B1B6819460B
:1009FC000220FFF715FD384B1B68002B54D1344BEC
:100A0C000D221A602F4B1B68642202FB03F3324A3F
:100A1C0013602C4B1B682F4A13602E4B1B68194616
:100A2C000220FFF7FDFC3FE02A4B1B681946022011
:100A3C00FFF7F6FC284B1B68002B37D1244B0C22FC
:100A4C001A60214B1B68642202FB03F3224A1360D9
:100A5C001D4B1B681F4A13601E4B1B681946022056
:100A6C00FFF7DEFC22E01B4B1B6819460220FFF748
:100A7C00D7FC194B1B68002B1AD1154B0B221A6093
:100A8C00124B1B68642202FB03F3134A13600F4BD7
:100A9C001B68104A13600F4B1B6819460220FFF7A6
:100AAC00BFFC05E000BF04E000BF02E000BF00E0B7
:100ABC0000BF00BF80BD00BF20000020D000002080
:100ACC007C000020180000201C00002014000020D6
:100ADC0024000020100100208000002080B500AF11
:100AEC00144B1B68002B0FD1124B64221A60124B53
:100AFC001B68013B104A1360104B1B68013B0F4AEB
:100B0C0013600F4B01221A600D4B1B68012B0ED189
:100B1C000B4B00221A60084B1B6819460120FFF78B
:100B2C007FFC064B1B6819460220FFF779FC00BFBF
:100B3C0080BD00BF88000020D000002010010020E4
:100B4C009000002080B500AFFFF7C8FF0C4B1B686E
:100B5C00002B13D10A4B0A221A600A4B1B68184649
:100B6C00FFF7F8FB074B1B680133064A1360054B74
:100B7C001B68032B02DD034B00221A6000BF80BDF3
:100B8C00840000207800002080B500AF01224FF4D3
:100B9C008071114801F061FA01224FF480610E4816
:100BAC0001F05BFA01224FF400710B4801F055FA89
:100BBC0001224FF40061084801F04FFA01224FF472
:100BCC000051054801F049FA01224FF480510248C6
:100BDC0001F043FA00BF80BD0008014080B500AFB2
:100BEC0000210120FFF71CFC00210220FFF718FC5C
:100BFC0000BF80BD80B582B000AF78607B681A2BD7
:100C0C0000F2898001A252F823F000BFB30C000857
:100C1C00230D0008230D0008230D0008230D0008E8
:100C2C00230D0008230D0008230D0008230D0008D8
:100C3C00230D0008230D0008230D0008230D0008C8
:100C4C00230D0008230D0008230D0008230D0008B8
:100C5C00230D0008230D0008230D0008230D0008A8
:100C6C00E10C00080D0D0008F70C0008850C0008BD
:100C7C009D0C0008C90C0008304B1B68002B4CD194
:100C8C002E4B4FF4FA721A601820FFF7D7FC44E091
:100C9C002A4B1B68002B42D1284BC8221A60192002
:100CAC00FFF7CCFC3BE0254B1B68002B39D1234BC9
:100CBC0019221A600020FFF7C1FC32E01F4B1B68A1
:100CCC00002B30D11D4B4FF4FA721A601A20FFF72B
:100CDC00B5FC28E0194B1B68002B26D1174B322290
:100CEC001A601520FFF7AAFC1FE0144B1B68002BA1
:100CFC001DD1124B32221A601720FFF79FFC16E011
:100D0C000E4B1B68002B14D10C4B32221A60162090
:100D1C00FFF794FC0DE000BF0CE000BF0AE000BF41
:100D2C0008E000BF06E000BF04E000BF02E000BF27
:100D3C0000E000BF00BF0837BD4680BD8C0000201E
:100D4C0080B500AF8021024801F09FF900BF80BD43
:100D5C000008014080B500AF00F07EFE00F02AF8DC
:100D6C0000F0B0F800F062F80D4801F0D3FD00F08F
:100D7C0097F9322200210B4800F0AEF90122002134
:100D8C00094800F0A9F901220021084800F0A4F953
:100D9C0001220021064800F09FF900F055FAFCE70B
:100DAC00200100204D0D00080D050008C51200089B
:100DBC004113000880B590B000AF07F1180328224A
:100DCC000021184602F056F93B1D00221A605A60A9
:100DDC009A60DA601A610223BB610123BB621023A3
:100DEC00FB6200237B6307F11803184601F066F9D8
:100DFC000346002B01D000F0E1F80F237B600023A9
:100E0C00BB600023FB6000233B6100237B613B1D27
:100E1C000021184601F0D2FB0346002B01D000F054
:100E2C00CDF800BF4037BD4680BD000080B586B010
:100E3C0000AF07F1080300221A605A609A60DA606A
:100E4C003B4600221A605A601D4B4FF080421A60DC
:100E5C001B4B41F63F725A60194B00229A60184B9B
:100E6C000922DA60164B00221A61154B00229A6196
:100E7C00134801F0FFFC0346002B01D000F09EF854
:100E8C004FF48053BB6007F1080319460C4801F07E
:100E9C007DFE0346002B01D000F090F800233B6050
:100EAC0000237B603B461946054802F055F8034683
:100EBC00002B01D000F082F800BF1837BD4680BD72
:100ECC002001002080B588B000AF07F1100300228C
:100EDC001A605A609A60DA602F4B9B692E4A43F075
:100EEC00100393612C4B9B6903F01003FB60FB68B0
:100EFC00294B9B69284A43F004039361264B9B6959
:100F0C0003F00403BB60BB68234B9B69224A43F08C
:100F1C0008039361204B9B6903F008037B607B689B
:100F2C00002243F6FF711D4801F097F8002240F2B1
:100F3C00FF711B4801F091F84FF460433B610023B3
:100F4C007B610123BB6107F110031946154800F0C2
:100F5C00F3FE43F6FF733B6101237B610023BB610E
:100F6C000223FB6107F1100319460C4800F0E4FE64
:100F7C0040F2FF733B6101237B610023BB610223C1
:100F8C00FB6107F110031946054800F0D5FE00BFC0
:100F9C002037BD4680BD00BF001002400008014054
:100FAC00000C01400010014080B582B000AF7860A9
:100FBC0000F0E8F800BF0837BD4680BD80B400AF34
:100FCC0072B600BFFEE7000080B483B000AF78605B
:100FDC007B68282B1ED8124B1B781A467B68D9B21B
:100FEC00104B99540E4B1B785A1C0F4B83FB02135E
:100FFC001911D317C91A0B469B000B44DB00D11AED
:10100C00CAB2074B1A70094B1B780133DAB2074B83
:10101C001A7000E000BF0C37BD4680BC704700BFA3
:10102C00C10000209800002067666666C2000020A0
:10103C0080B483B000AF7860154B1B78002B01D1C6
:10104C0000231FE0134B1B781A46134B9B5C1A466C
:10105C007B681A600F4B1B785A1C104B83FB0213D6
:10106C001911D317C91A0B469B000B44DB00D11A7C
:10107C00CAB2084B1A70064B1B78013BDAB2044B10
:10108C001A70012318460C37BD4680BC704700BF50
:10109C00C2000020C0000020980000206766666631
:1010AC0080B400AF084B00221A70084B00221A7053
:1010BC00064B1A78064B1A70054B1A78054B1A70AA
:1010CC0000BFBD4680BC704794000020C2000020C9
:1010DC00C1000020C000002080B485B000AFF860D3
:1010EC00B9607A60254B1B78272B42D8234B1B7891
:1010FC001946234A0B469B000B449B001344FA6889
:10110C001A601E4B1B7819461D4A0B469B000B445C
:10111C009B0013440433BA681A60184B1B781946A9
:10112C00174A0B469B000B449B00134408337A6808
:10113C001A60124B1B781946114A0B469B000B4444
:10114C009B0013440C3300221A700C4B1A780B4B77
:10115C001B78194610460A4A0B469B000B449B0011
:10116C00134410331860054B1B780133DAB2034B70
:10117C001A7000BF1437BD4680BC70479400002025
:10118C006801002080B582B000AF00237B604CE08A
:10119C002B497A6813469B0013449B000B44043381
:1011AC001B68002B13D026497A6813469B00134406
:1011BC009B000B4404331B68591E21487A68134664
:1011CC009B0013449B000344043319602AE01C4920
:1011DC007A6813469B0013449B000B440833196830
:1011EC0017487A6813469B0013449B00034404334E
:1011FC00196013497A6813469B0013449B000B44F7
:10120C000C331B780133D8B20D497A6813469B0016
:10121C0013449B000B440C3302461A707B6818462F
:10122C00FFF7D2FE7B6801337B60064B1B781A46B6
:10123C007B689342ACDB00BF00BF0837BD4680BD66
:10124C00680100209400002080B582B000AF3B1DE7
:10125C001846FFF7EDFE0346002B27D07A68154998
:10126C0013469B0013449B000B440C331B78002B40
:10127C001CD07A680F4913469B0013449B000B4407
:10128C000C331B78013BD8B20A4913469B0013441C
:10129C009B000B440C3302461A707A6805491346BE
:1012AC009B0013449B000B441B68984700BF0837F6
:1012BC00BD4680BD6801002080B400AF184B1B6890
:1012CC00002B04DD164B1B68013B154A1360154BB4
:1012DC001B68002B04DD134B1B68013B114A136088
:1012EC00114B1B68002B04DD0F4B1B68013B0E4A96
:1012FC0013600E4B1B68002B04DD0C4B1B68013B71
:10130C000A4A13600A4B1B68002B04DD084B1B6850
:10131C00013B074A136000BFBD4680BC704700BF4D
:10132C007C00002080000020840000208800002029
:10133C008C00002080B500AFA14B1B68032B00F282
:10134C00CF8201A252F823F065130008AF130008F6
:10135C00F1130008AF150008FFF716FC984B01229B
:10136C001A60984B1B68642202FB03F3964A1360C5
:10137C00964B1B68642202FB03F3954A1360954B52
:10138C000A221A60944B64221A60944B32221A601F
:10139C008C4B1B68924A13608C4B1B68914A1360F0
:1013AC00A3E20020FFF7A2FAFFF7CCFB0020FFF727
:1013BC008DF80346002B00F09582814B02221A60B7
:1013CC00894B18221A6002210220FFF729F8814B61
:1013DC0019221A60814B32221A60FFF7FFFBFFF7CC
:1013EC00D3FB82E2804B1B681A2B61D01A2B00F3C3
:1013FC009480182B02D0192B2CD08EE07A4B1B68C2
:10140C00182B02D0784B18221A600120FFF75EF8D7
:10141C000346002B07D0744B19221A6002210220BC
:10142C00FEF7FEFF79E06B4B1B68002B70D1694B0C
:10143C000A221A606D4B1B685A1C6C490A601846CC
:10144C00FEF788FF694B1B68032B61DD674B00229D
:10145C001A605DE0644B1B68192B02D0624B192299
:10146C001A605E4B1B68002B0BD15F4B1B681A2B51
:10147C0003D05D4B1A221A604FE002210220FEF7C6
:10148C00CFFF544B1B68002B44D1524B0A221A60DD
:10149C00564B1B685A1C55490A601846FEF75AFFF2
:1014AC00524B1B68032B35DD504B00221A6031E088
:1014BC004D4B1B681A2B02D04B4B1A221A60012081
:1014CC00FFF704F80346002B0BD0474B1B68182B77
:1014DC0002D0454B18221A6002210220FEF7A0FF11
:1014EC001BE03C4B1B68002B16D13A4B0A221A60AE
:1014FC003E4B1B685A1C3D490A601846FEF72AFFF2
:10150C003A4B1B68032B07DD384B00221A6003E0B3
:10151C0000BF02E000BF00E000BF0020FEF7D6FFD6
:10152C000346002B1FD0264B03221A60304B1F2280
:10153C001A602D4B15221A60264B0A221A60274B73
:10154C0032221A60FFF720FB1E4B1B68294A1360DE
:10155C00284B1B6819460120FEF762FF032102206D
:10156C00FEF75EFFC1E1204B1B681846FFF742FBFC
:10157C00184B1B68002B40F0B781164B0A221A60DF
:10158C001A4B1B685A1C19490A601846FEF7E2FEF2
:10159C00164B1B68032B40F3A781144B00221A60D7
:1015AC00A2E1134B1B68212B00F00281212B00F3CD
:1015BC006F811F2B20D0202B00F0898068E100BFA9
:1015CC0060000020140000207C0000201800002087
:1015DC008000002084000020880000208C00002067
:1015EC00D0000020100100206400002078000020B2
:1015FC002800002088040020A64B1B68152B04D063
:10160C00A44B15221A60FFF7BFFAA24B1B681846B1
:10161C00FFF7F0FA0120FEF759FF0346002B11D01B
:10162C009D4B1B6801339C4A13609B4B1B68632BBF
:10163C0002DD994B00221A60974B1B68194601205A
:10164C00FEF7EEFE954B1B68002B11D1934B0A2233
:10165C001A60934B1B685A1C91490A601846FEF796
:10166C0079FE8F4B1B68032B02DD8D4B00221A6019
:10167C000220FEF72BFF0346002B04D0864B1B6881
:10168C00884A13602BE10020FEF720FF0346002B55
:10169C0000F02081844B20221A607E4B17221A60A6
:1016AC00824B1B687C4A13607C4B0A221A60804B6D
:1016BC0032221A60FFF768FA774B1B681946012033
:1016CC00FEF7AEFE03210220FEF7AAFE07E1714BE6
:1016DC001B68172B04D06F4B17221A60FFF754FAB4
:1016EC006C4B1B681846FFF785FA0120FEF7EEFEDF
:1016FC000346002B11D0684B1B680133664A1360FC
:10170C00654B1B68632B02DD634B00221A60624B36
:10171C001B6819460120FEF783FE604B1B68002BEB
:10172C0011D15E4B0A221A605D4B1B685A1C5C4936
:10173C000A601846FEF70EFE594B1B68032B02DDA0
:10174C00574B00221A600220FEF7C0FE0346002B06
:10175C000ED0514B1B68554A13604F4B1B681946F2
:10176C000120FEF75DFE03210220FEF759FEB6E0D4
:10177C000020FEF7ABFE0346002B00F0AD804A4B79
:10178C0021221A604B4B1B68434A1360414B1622B3
:10179C001A60424B0A221A60454B32221A60FFF73C
:1017AC00F3F93D4B1B6819460120FEF739FE96E014
:1017BC00384B1B68162B04D0364B16221A60FFF7D9
:1017CC00E3F9344B1B681846FFF714FA0120FEF7B7
:1017DC007DFE0346002B11D02F4B1B6801332E4A84
:1017EC0013602D4B1B68632B02DD2B4B00221A6000
:1017FC00294B1B6819460120FEF712FE274B1B686C
:10180C00002B11D1254B0A221A60254B1B685A1C40
:10181C0023490A601846FEF79DFD214B1B68032BDC
:10182C0002DD1F4B00221A600220FEF74FFE03461A
:10183C00002B04D0184B1B681E4A13604FE000208D
:10184C00FEF744FE0346002B48D01B4B01221A60C6
:10185C00144B1B68194A1360144B1B68184A13600D
:10186C00184B0B221A60184B0D221A600D4B1B687B
:10187C00642202FB03F3154A13600C4B1B686422B1
:10188C0002FB03F3124A13600020FEF7D7FE26E09A
:10189C0000BF2AE06400002088040020840000209F
:1018AC0078000020140000202800002018000020E0
:1018BC008C0000201C00002060000020D0000020C4
:1018CC001001002020000020240000207C000020BB
:1018DC008000002000BF08E000BF06E000BF04E06D
:1018EC0000BF02E000BF00E000BF00BF80BD00BF32
:1018FC0080B485B000AF154B9B69144A43F00103CB
:10190C009361124B9B6903F00103BB60BB680F4BE7
:10191C00DB690E4A43F08053D3610C4BDB6903F057
:10192C0080537B607B680A4B5B68FB60FB6823F031
:10193C00E063FB60FB6843F08063FB60044AFB6878
:10194C00536000BF1437BD4680BC70470010024086
:10195C000000014080B584B000AF78607B681B68E4
:10196C00B3F1804F13D10C4BDB690B4A43F00103ED
:10197C00D361094BDB6903F00103FB60FB680022B8
:10198C0000211C2000F0A1F91C2000F0BAF900BFC6
:10199C001037BD4680BD00BF0010024080B400AFC0
:1019AC00FEE780B400AFFEE780B400AFFEE780B482
:1019BC0000AFFEE780B400AFFEE780B400AF00BF1D
:1019CC00BD4680BC704780B400AF00BFBD4680BC34
:1019DC00704780B400AF00BFBD4680BC704780B577
:1019EC0000AF00F07FF800BF80BD000080B500AFF5
:1019FC00024800F0DBFF00BF80BD00BF20010020CB
:101A0C0080B400AF00BFBD4680BC7047FFF7F8FF45
:101A1C000B480C490C4A002302E0D458C450043340
:101A2C00C4188C42F9D3094A094C002301E0136015
:101A3C000432A242FBD301F0F9FAFFF78BF970479D
:101A4C000000002044000020D43000084400002096
:101A5C0090040020FEE7000080B500AF084B1B6827
:101A6C00074A43F010031360032000F023F90F2002
:101A7C0000F008F8FFF73CFF0023184680BD00BFBC
:101A8C000020024080B582B000AF7860124B1A681B
:101A9C00124B1B7819464FF47A73B3FBF1F3B2FB7C
:101AAC00F3F3184600F03BF90346002B01D0012359
:101ABC000EE07B680F2B0AD8002279684FF0FF30BC
:101ACC0000F003F9064A7B681360002300E0012351
:101ADC0018460837BD4680BD380000204000002065
:101AEC003C00002080B400AF054B1B781A46054B18
:101AFC001B681344034A136000BFBD4680BC70478B
:101B0C00400000208C04002080B400AF024B1B6806
:101B1C001846BD4680BC70478C04002080B485B04C
:101B2C0000AF78607B6803F00703FB600C4BDB684D
:101B3C00BB60BA684FF6FF031340BB60FB681A0228
:101B4C00BB68134343F0BF6343F40033BB60044AE8
:101B5C00BB68D36000BF1437BD4680BC704700BF64
:101B6C0000ED00E080B400AF044BDB681B0A03F00F
:101B7C0007031846BD4680BC704700BF00ED00E06F
:101B8C0080B483B000AF0346FB7197F90730002B8C
:101B9C000BDBFB7903F01F02064997F907305B0951
:101BAC00012000FA02F241F8232000BF0C37BD4699
:101BBC0080BC704700E100E080B483B000AF034606
:101BCC003960FB7197F90730002B0ADB3B68DAB2FE
:101BDC000C4997F907301201D2B20B4483F8002359
:101BEC000AE03B68DAB20849FB7903F00F03043BC7
:101BFC001201D2B20B441A7600BF0C37BD4680BC22
:101C0C00704700BF00E100E000ED00E080B489B057
:101C1C0000AFF860B9607A60FB6803F00703FB6102
:101C2C00FB69C3F10703042B28BF0423BB61FB69C9
:101C3C000433062B02D9FB69033B00E000237B61D4
:101C4C004FF0FF32BB6902FA03F3DA43BB681A4068
:101C5C007B699A404FF0FF317B6901FA03F3D9435A
:101C6C007B680B40134318462437BD4680BC704735
:101C7C0080B582B000AF78607B68013BB3F1807FA8
:101C8C0001D301230FE00A4A7B68013B53600F210B
:101C9C004FF0FF30FFF790FF054B00229A60044B8A
:101CAC0007221A60002318460837BD4680BD00BFC6
:101CBC0010E000E080B582B000AF78607868FFF784
:101CCC002DFF00BF0837BD4680BD80B586B000AF84
:101CDC000346B9607A60FB7300237B61FFF742FF18
:101CEC0078617A68B9687869FFF790FF024697F9CE
:101CFC000F3011461846FFF75FFF00BF1837BD467F
:101D0C0080BD80B582B000AF0346FB7197F90730F8
:101D1C001846FFF735FF00BF0837BD4680BD80B5BC
:101D2C0082B000AF78607868FFF7A2FF03461846D0
:101D3C000837BD4680BD000080B48BB000AF786022
:101D4C00396000237B6200233B6248E101227B6AFD
:101D5C0002FA03F3FB613B681B68FA691340BB6131
:101D6C00BA69FB699A4240F037813B685B68A34AC9
:101D7C0093425ED0A14A934275D8A14A934258D05F
:101D8C009F4A93426FD89F4A934252D09D4A9342A6
:101D9C0069D89D4A93424CD09B4A934263D89B4A44
:101DAC00934246D0994A93425DD8122B2AD8122BD3
:101DBC0059D801A252F823F03F1E0008191E000842
:101DCC002B1E00086D1E0008731E0008731E0008F1
:101DDC00731E0008731E0008731E0008731E000893
:101DEC00731E0008731E0008731E0008731E000883
:101DFC00731E0008731E0008731E0008211E0008C5
:101E0C00351E0008824A934213D02CE03B68DB68F5
:101E1C003B6229E03B68DB6804333B6224E03B68AF
:101E2C00DB6808333B621FE03B68DB680C333B62CA
:101E3C001AE03B689B68002B02D104233B6213E041
:101E4C003B689B68012B05D108233B627B68FA69D0
:101E5C001A6109E008233B627B68FA695A6103E066
:101E6C0000233B6200E000BFBB69FF2B01D87B68FD
:101E7C0001E07B6804337B61BB69FF2B02D87B6A72
:101E8C009B0002E07B6A083B9B003B617B691A6804
:101E9C000F213B6901FA03F3DB431A40396A3B69B2
:101EAC0001FA03F31A437B691A603B685B6803F021
:101EBC008053002B00F09080564B9B69554A43F0A1
:101ECC0001039361534B9B6903F00103BB60BB6837
:101EDC00514A7B6A9B08023352F82330FB607B6AC1
:101EEC0003F003039B000F2202FA03F3DB43FA68AF
:101EFC001340FB607B68494A93420DD07B68484A8B
:101F0C00934207D07B68474A934201D1022304E0F5
:101F1C00032302E0012300E000237A6A02F00302AB
:101F2C0092009340FA681343FB603B497B6A9B0821
:101F3C000233FA6841F823203B685B6803F4801392
:101F4C00002B06D0384B9A683749BB6913438B601A
:101F5C0006E0354B9A68BB69DB43334913408B6011
:101F6C003B685B6803F40013002B06D02E4BDA6839
:101F7C002D49BB691343CB6006E02B4BDA68BB6978
:101F8C00DB4329491340CB603B685B6803F40033A7
:101F9C00002B06D0244B5A682349BB6913434B6072
:101FAC0006E0214B5A68BB69DB431F4913404B6069
:101FBC003B685B6803F48033002B06D01A4B1A681D
:101FCC001949BB6913430B6006E0174B1A68BB69D0
:101FDC00DB43154913400B607B6A01337B623B6822
:101FEC001A687B6A22FA03F3002B7FF4AFAE00BFB2
:101FFC0000BF2C37BD4680BC704700BF00003210BC
:10200C0000003110000022100000211000001210FE
:10201C0000001110001002400000014000080140B7
:10202C00000C0140001001400004014080B485B058
:10203C0000AF78600B467B807B689A687B88134086
:10204C00002B02D00123FB7301E00023FB73FB7B0D
:10205C0018461437BD4680BC704780B483B000AFBF
:10206C0078600B467B8013467B707B78002B03D00B
:10207C007A887B681A6103E07B881A047B681A6192
:10208C0000BF0C37BD4680BC704780B485B000AF34
:10209C0078600B467B807B68DB68FB607A88FB682A
:1020AC0013401A04FB68D9437B880B401A437B68A6
:1020BC001A6100BF1437BD4680BC704780B586B02E
:1020CC0000AF78607B68002B01D101236CE27B6848
:1020DC001B6803F00103002B00F08780924B5B68B8
:1020EC0003F00C03042B0CD08F4B5B6803F00C0338
:1020FC00082B12D18C4B5B6803F48033B3F5803F13
:10210C000BD1894B1B6803F40033002B6CD07B681C
:10211C005B68002B68D1012346E27B685B68B3F5F2
:10212C00803F06D1804B1B687F4A43F48033136099
:10213C002EE07B685B68002B0CD17B4B1B687A4ACA
:10214C0023F480331360784B1B68774A23F4802385
:10215C0013601DE07B685B68B3F5A02F0CD1724B4C
:10216C001B68714A43F4802313606F4B1B686E4AE3
:10217C0043F4803313600BE06B4B1B686A4A23F407
:10218C0080331360684B1B68674A23F48023136009
:10219C007B685B68002B13D0FFF7B6FC386108E056
:1021AC00FFF7B2FC02463B69D31A642B01D9032317
:1021BC00FAE15D4B1B6803F40033002BF0D014E004
:1021CC00FFF7A2FC386108E0FFF79EFC02463B6972
:1021DC00D31A642B01D90323E6E1534B1B6803F498
:1021EC000033002BF0D100E000BF7B681B6803F0CC
:1021FC000203002B63D04C4B5B6803F00C03002BE9
:10220C000BD0494B5B6803F00C03082B1CD1464BDD
:10221C005B6803F48033002B16D1434B1B6803F02F
:10222C000203002B05D07B681B69012B01D0012315
:10223C00BAE13D4B1B6823F0F8027B685B69DB005D
:10224C00394913430B603AE07B681B69002B20D0A3
:10225C00364B01221A60FFF757FC386108E0FFF794
:10226C0053FC02463B69D31A022B01D903239BE191
:10227C002D4B1B6803F00203002BF0D02A4B1B687C
:10228C0023F0F8027B685B69DB00274913430B6082
:10229C0015E0264B00221A60FFF736FC386108E087
:1022AC00FFF732FC02463B69D31A022B01D90323F8
:1022BC007AE11D4B1B6803F00203002BF0D17B6805
:1022CC001B6803F00803002B3AD07B689B69002B3A
:1022DC0019D0174B01221A60FFF716FC386108E081
:1022EC00FFF712FC02463B69D31A022B01D90323D8
:1022FC005AE10D4B5B6A03F00203002BF0D0012076
:10230C0000F09AFA1CE00A4B00221A60FFF7FCFB63
:10231C0038610FE0FFF7F8FB02463B69D31A022B3A
:10232C0008D9032340E100BF0010024000004242E4
:10233C00800442429E4B5B6A03F00203002BE9D1FE
:10234C007B681B6803F00403002B00F0A6800023BD
:10235C00FB75974BDB6903F08053002B0DD1944B2D
:10236C00DB69934A43F08053D361914BDB6903F0F3
:10237C008053BB60BB680123FB758E4B1B6803F459
:10238C008073002B18D18B4B1B688A4A43F48073E3
:10239C001360FFF7B9FB386108E0FFF7B5FB0246A5
:1023AC003B69D31A642B01D90323FDE0814B1B68D5
:1023BC0003F48073002BF0D07B68DB68012B06D113
:1023CC007B4B1B6A7A4A43F0010313622DE07B6856
:1023DC00DB68002B0CD1764B1B6A754A23F001038A
:1023EC001362734B1B6A724A23F0040313621CE0E2
:1023FC007B68DB68052B0CD16D4B1B6A6C4A43F078
:10240C00040313626A4B1B6A694A43F001031362AB
:10241C000BE0674B1B6A664A23F001031362644BA3
:10242C001B6A634A23F0040313627B68DB68002B8E
:10243C0015D0FFF769FB38610AE0FFF765FB024630
:10244C003B69D31A41F28832934201D90323ABE0A2
:10245C00574B1B6A03F00203002BEED014E0FFF77E
:10246C0053FB38610AE0FFF74FFB02463B69D31A76
:10247C0041F28832934201D9032395E04C4B1B6AFD
:10248C0003F00203002BEED1FB7D012B05D1484B51
:10249C00DB69474A23F08053D3617B68DB69002BEF
:1024AC0000F08180424B5B6803F00C03082B61D079
:1024BC007B68DB69022B46D13F4B00221A60FFF789
:1024CC0023FB386108E0FFF71FFB02463B69D31A78
:1024DC00022B01D9032367E0354B1B6803F0007313
:1024EC00002BF0D17B681B6AB3F5803F08D1304BD1
:1024FC005B6823F400327B689B682D4913434B6067
:10250C002B4B5B6823F474127B68196A7B685B6ADB
:10251C000B43274913434B60274B01221A60FFF7EB
:10252C00F3FA386108E0FFF7EFFA02463B69D31A79
:10253C00022B01D9032337E01D4B1B6803F00073FA
:10254C00002BF0D02FE01C4B00221A60FFF7DCFAB6
:10255C00386108E0FFF7D8FA02463B69D31A022B20
:10256C0001D9032320E0124B1B6803F00073002BEE
:10257C00F0D118E07B68DB69012B01D1012313E05A
:10258C000B4B5B68FB60FB6803F480327B681B6A57
:10259C009A4206D1FB6803F470127B685B6A9A421C
:1025AC0001D0012300E0002318461837BD4680BD3A
:1025BC0000100240007000406000424280B584B0C0
:1025CC0000AF786039607B68002B01D10123D0E02B
:1025DC006A4B1B6803F007033A689A4210D9674BA1
:1025EC001B6823F0070265493B6813430B60634B80
:1025FC001B6803F007033A689A4201D00123B8E044
:10260C007B681B6803F00203002B20D07B681B68DF
:10261C0003F00403002B05D0594B5B68584A43F474
:10262C00E06353607B681B6803F00803002B05D044
:10263C00534B5B68524A43F460535360504B5B6896
:10264C0023F0F0027B689B684D4913434B607B6819
:10265C001B6803F00103002B40D07B685B68012BE7
:10266C0007D1474B1B6803F40033002B15D1012312
:10267C007FE07B685B68022B07D1414B1B6803F042
:10268C000073002B09D1012373E03D4B1B6803F051
:10269C000203002B01D101236BE0394B5B6823F063
:1026AC0003027B685B68364913434B60FFF72CFAD7
:1026BC00F8600AE0FFF728FA0246FB68D31A41F2E9
:1026CC008832934201D9032353E02D4B5B6803F00E
:1026DC000C027B685B689B009A42EBD1274B1B6812
:1026EC0003F007033A689A4210D2244B1B6823F07C
:1026FC00070222493B6813430B60204B1B6803F015
:10270C0007033A689A4201D0012332E07B681B68C8
:10271C0003F00403002B08D0194B5B6823F4E06230
:10272C007B68DB68164913434B607B681B6803F0BE
:10273C000803002B09D0124B5B6823F460527B68B2
:10274C001B69DB000E4913434B6000F021F8024675
:10275C000B4B5B681B0903F00F030A49CB5C22FA95
:10276C0003F3094A1360094B1B681846FFF78AF9F3
:10277C00002318461037BD4680BD00BF0020024024
:10278C0000100240A8300008380000203C00002057
:10279C0080B487B000AF0023FB600023BB60002334
:1027AC007B6100237B6000233B611E4B5B68FB60FD
:1027BC00FB6803F00C03042B02D0082B03D027E09A
:1027CC00194B3B6127E0FB689B0C03F00F03174A86
:1027DC00D35C7B60FB6803F48033002B10D0114B6F
:1027EC005B685B0C03F00103114AD35CBB607B6834
:1027FC000D4A02FB03F2BB68B2FBF3F37B6104E00E
:10280C007B680C4A02FB03F37B617B693B6102E052
:10281C00054B3B6100BF3B6918461C37BD4680BC6D
:10282C00704700BF0010024000127A00B830000858
:10283C00C830000800093D0080B485B000AF786056
:10284C000A4B1B680A4AA2FB03235B0A7A6802FB49
:10285C0003F3FB6000BFFB685A1EFA60002BF9D132
:10286C0000BF00BF1437BD4680BC70473800002045
:10287C00D34D621080B582B000AF78607B68002BBE
:10288C0001D1012341E07B6893F83D30DBB2002B92
:10289C0006D17B68002283F83C207868FFF75AF851
:1028AC007B68022283F83D207B681A687B680433BE
:1028BC001946104600F056FA7B68012283F8462030
:1028CC007B68012283F83E207B68012283F83F203D
:1028DC007B68012283F840207B68012283F8412029
:1028EC007B68012283F842207B68012283F8432015
:1028FC007B68012283F844207B68012283F8452001
:10290C007B68012283F83D20002318460837BD461A
:10291C0080BD000080B485B000AF78607B6893F810
:10292C003D30DBB2012B01D0012335E07B68022264
:10293C0083F83D207B681B68DA687B681B6842F073
:10294C000102DA607B681B68164A934209D07B68E7
:10295C001B68B3F1804F04D07B681B68124A93420A
:10296C0011D17B681B689B6803F00703FB60FB6855
:10297C00062B10D07B681B681A687B681B6842F0BA
:10298C0001021A6007E07B681B681A687B681B6889
:10299C0042F001021A60002318461437BD4680BC71
:1029AC00704700BF002C01400004004080B584B08B
:1029BC0000AF78607B681B68DB68FB607B681B681A
:1029CC001B69BB60BB6803F00203002B20D0FB68C3
:1029DC0003F00203002B1BD07B681B686FF0020214
:1029EC001A617B6801221A777B681B689B6903F06C
:1029FC000303002B03D0786800F098F905E07868A1
:102A0C0000F08BF9786800F09AF97B6800221A774D
:102A1C00BB6803F00403002B20D0FB6803F0040315
:102A2C00002B1BD07B681B686FF004021A617B685B
:102A3C0002221A777B681B689B6903F44073002B96
:102A4C0003D0786800F072F905E0786800F065F959
:102A5C00786800F074F97B6800221A77BB6803F081
:102A6C000803002B20D0FB6803F00803002B1BD0BD
:102A7C007B681B686FF008021A617B6804221A7766
:102A8C007B681B68DB6903F00303002B03D07868B9
:102A9C0000F04CF905E0786800F03FF9786800F038
:102AAC004EF97B6800221A77BB6803F01003002BE9
:102ABC0020D0FB6803F01003002B1BD07B681B6835
:102ACC006FF010021A617B6808221A777B681B680A
:102ADC00DB6903F44073002B03D0786800F026F90F
:102AEC0005E0786800F019F9786800F028F97B683F
:102AFC0000221A77BB6803F00103002B0CD0FB6893
:102B0C0003F00103002B07D07B681B686FF00102F8
:102B1C001A617868FEF748FABB6803F08003002B53
:102B2C000CD0FB6803F08003002B07D07B681B687C
:102B3C006FF080021A61786800F06FFABB6803F0DE
:102B4C004003002B0CD0FB6803F04003002B07D094
:102B5C007B681B686FF040021A61786800F0F8F827
:102B6C00BB6803F02003002B0CD0FB6803F02003A0
:102B7C00002B07D07B681B686FF020021A61786805
:102B8C0000F042FA00BF1037BD4680BD80B584B05E
:102B9C0000AF786039600023FB737B6893F83C309E
:102BAC00012B01D10223B4E07B68012283F83C2085
:102BBC007B68022283F83D207B681B689B68BB60A6
:102BCC00BB6823F07703BB60BB6823F47F43BB6017
:102BDC007B681B68BA689A603B681B68B3F5005F3A
:102BEC003ED0B3F5005F00F28780B3F5805F00F054
:102BFC008680B3F5805F7FD8702B1AD0702B7BD872
:102C0C00602B50D0602B77D8502B3CD0502B73D8E6
:102C1C00402B58D0402B6FD8302B64D0302B6BD836
:102C2C00202B60D0202B67D8002B5CD0102B5AD0D7
:102C3C0062E07B6818683B6899683B685A683B6837
:102C4C00DB6800F06AF97B681B689B68BB60BB683B
:102C5C0043F07703BB607B681B68BA689A604FE0EF
:102C6C007B6818683B6899683B685A683B68DB6806
:102C7C0000F053F97B681B689A687B681B6842F408
:102C8C0080429A603CE07B6818683B6859683B68F6
:102C9C00DB681A4600F0CAF87B681B68502118469E
:102CAC0000F021F92CE07B6818683B6859683B6898
:102CBC00DB681A4600F0E8F87B681B686021184650
:102CCC0000F011F91CE07B6818683B6859683B6898
:102CDC00DB681A4600F0AAF87B681B68402118468E
:102CEC0000F001F90CE07B681A683B681B68194618
:102CFC00104600F0F8F803E00123FB7300E000BF7E
:102D0C007B68012283F83D207B68002283F83C20FD
:102D1C00FB7B18461037BD4680BD80B483B000AF36
:102D2C00786000BF0C37BD4680BC704780B483B060
:102D3C0000AF786000BF0C37BD4680BC704780B4D4
:102D4C0083B000AF786000BF0C37BD4680BC7047C5
:102D5C0080B483B000AF786000BF0C37BD4680BC38
:102D6C007047000080B485B000AF786039607B6834
:102D7C001B68FB607B682B4A934207D07B68B3F1DE
:102D8C00804F03D07B68284A934208D1FB6823F01C
:102D9C007003FB603B685B68FA681343FB607B68FD
:102DAC00204A934207D07B68B3F1804F03D07B68F5
:102DBC001D4A934208D1FB6823F44073FB603B68C7
:102DCC00DB68FA681343FB60FB6823F080023B6806
:102DDC005B691343FB607B68FA681A603B689A680E
:102DEC007B68DA623B681A687B689A627B680D4A7A
:102DFC00934203D13B681A697B681A637B68012292
:102E0C005A617B681B6903F00103002B05D07B68BA
:102E1C001B6923F001027B681A6100BF1437BD46A1
:102E2C0080BC7047002C01400004004080B487B087
:102E3C0000AFF860B9607A60FB681B6A7B61FB6865
:102E4C001B6A23F00102FB681A62FB689B693B61F9
:102E5C003B6923F0F0033B617B681B013A69134328
:102E6C003B617B6923F00A037B617A69BB6813437E
:102E7C007B61FB683A699A61FB687A691A6200BFE8
:102E8C001C37BD4680BC704780B487B000AFF8607B
:102E9C00B9607A60FB681B6A7B61FB681B6A23F074
:102EAC001002FB681A62FB689B693B613B6923F467
:102EBC0070433B617B681B033A6913433B617B693D
:102ECC0023F0A0037B61BB681B017A6913437B6110
:102EDC00FB683A699A61FB687A691A6200BF1C3711
:102EEC00BD4680BC704780B485B000AF7860396057
:102EFC007B689B68FB60FB6823F07003FB603A689F
:102F0C00FB68134343F00703FB607B68FA689A6025
:102F1C0000BF1437BD4680BC704780B487B000AF8B
:102F2C00F860B9607A603B60FB689B687B617B6989
:102F3C0023F47F437B613B681A027B681A43BB68AE
:102F4C0013437A6913437B61FB687A699A6000BF0B
:102F5C001C37BD4680BC704780B485B000AF78602C
:102F6C0039607B6893F83C30012B01D1022341E09E
:102F7C007B68012283F83C207B68022283F83D2089
:102F8C007B681B685B68FB607B681B689B68BB602D
:102F9C00FB6823F07003FB603B681B68FA68134303
:102FAC00FB607B681B68FA685A607B681B68144A74
:102FBC00934209D07B681B68B3F1804F04D07B68C7
:102FCC001B68104A93420CD1BB6823F08003BB6092
:102FDC003B685B68BA681343BB607B681B68BA6864
:102FEC009A607B68012283F83D207B68002283F87D
:102FFC003C20002318461437BD4680BC704700BFE8
:10300C00002C01400004004080B483B000AF786015
:10301C0000BF0C37BD4680BC704780B483B000AF96
:10302C00786000BF0C37BD4680BC704770B5002679
:10303C000C4D0D4C641BA410A64209D100F022F8D3
:10304C0000260A4D0A4C641BA410A64205D170BD83
:10305C0055F8043B98470136EEE755F8043B984782
:10306C000136F2E7CC300008CC300008CC30000838
:10307C00D030000803460244934200D1704703F855
:10308C00011BF9E7F8B500BFF8BC08BC9E467047B9
:0C309C00F8B500BFF8BC08BC9E467047A9
:1030A80000000000000000000102030406070809F0
:1030B80002030405060708090A0B0C0D0E0F101071
:0430C8000102000001
:0430CC0031010008C6
:0430D0000D010008E6
:1030D4000010014000100140001001400020004099
:1030E400008000000900000006000000030000004A
:1030F4000B0000000D0000001F0000004079243088
:10310400191202780010000000127A00100000006A
:0431140001000000B6
:0400000508001A19BC
:00000001FF
