:020000040800F2
:1000000000280020B11B0008411B0008471B000806
:100010004D1B0008531B0008591B0008000000007E
:100020000000000000000000000000005F1B00084E
:100030006B1B000800000000771B0008831B0008F2
:10004000F91B0008F91B0008F91B0008F91B000840
:10005000F91B0008F91B0008F91B0008F91B000830
:10006000F91B0008F91B0008F91B0008F91B000820
:10007000F91B0008F91B0008F91B0008F91B000810
:10008000F91B0008F91B0008F91B0008F91B000800
:10009000F91B0008F91B0008F91B0008F91B0008F0
:1000A000F91B0008F91B0008F91B0008F91B0008E0
:1000B000911B0008F91B000800000000F91B000854
:1000C000F91B00080000000000000000F91B0008F8
:1000D00000000000F91B0008F91B000800000000E8
:1000E000F91B0008F91B0008F91B000800000000BC
:1000F0000000000000000000000000000000000000
:0C01000000000000000000005FF808F1A3
:10010C0010B5054C237833B9044B13B10448AFF345
:10011C0000800123237010BD480000200000000067
:10012C002832000808B5034B1BB103490348AFF351
:10013C00008008BD000000004C00002028320008A0
:10014C0080B582B000AF786039607B68012B03D03A
:10015C007B68022B40F0F1803B68002BC0F2EF80F3
:10016C003B68092B00F3EB807B68012B03D07B6889
:10017C00022B71D0E4E0744A3B6813441B7803F003
:10018C000103002B14BF01230023DBB21A4601210B
:10019C006E4802F02EF86C4A3B6813441B7803F04F
:1001AC000203002B14BF01230023DBB21A460221E9
:1001BC00664802F01EF8644A3B6813441B7803F04F
:1001CC000403002B14BF01230023DBB21A460421C5
:1001DC005E4802F00EF85C4A3B6813441B7803F04F
:1001EC000803002B14BF01230023DBB21A4608219D
:1001FC00564801F0FEFF544A3B6813441B7803F049
:10020C001003002B14BF01230023DBB21A4610216C
:10021C004E4801F0EEFF4C4A3B6813441B7803F048
:10022C002003002B14BF01230023DBB21A4620212C
:10023C00464801F0DEFF444A3B6813441B7803F048
:10024C004003002B14BF01230023DBB21A464021CC
:10025C003E4801F0CEFF73E03B4A3B6813441B78E9
:10026C0003F00103002B14BF01230023DBB21A4659
:10027C000121374801F0BDFF334A3B6813441B781A
:10028C0003F00203002B14BF01230023DBB21A4638
:10029C0002212F4801F0ADFF2B4A3B6813441B7819
:1002AC0003F00403002B14BF01230023DBB21A4616
:1002BC000421274801F09DFF234A3B6813441B7817
:1002CC0003F00803002B14BF01230023DBB21A46F2
:1002DC0008211F4801F08DFF1B4A3B6813441B7813
:1002EC0003F01003002B14BF01230023DBB21A46CA
:1002FC001021174801F07DFF134A3B6813441B780B
:10030C0003F02003002B14BF01230023DBB21A4699
:10031C0020210F4801F06DFF0B4A3B6813441B78FA
:10032C0003F04003002B14BF01230023DBB21A4659
:10033C004021074801F05DFF02E000BF00E000BF74
:10034C000837BD4680BD00BF2C00002000080140CE
:10035C00000C014080B582B000AF78600122802192
:10036C002D4801F046FF01224FF480712A4801F01C
:10037C0040FF01224FF40071274801F03AFF01229F
:10038C004FF48061244801F034FF7B68032B3ED886
:10039C0001A252F823F000BFB5030008CD030008FA
:1003AC00E7030008010400081C4B1B6819460120D8
:1003BC00FFF7C6FE00228021174801F01AFF27E044
:1003CC00164B5B6819460120FFF7BAFE00224FF46A
:1003DC008071114801F00DFF1AE0104B9B68194613
:1003EC000220FFF7ADFE00224FF400710A4801F025
:1003FC0000FF0DE0094BDB6819460220FFF7A0FE59
:10040C0000224FF48061044801F0F3FE00E000BFCD
:10041C0000BF0837BD4680BD000C01406C000020B9
:10042C0080B483B000AF786039607B68012B03D057
:10043C007B68022B18D02FE03B681A4A82FB031210
:10044C009210DB17D31A184A13603968154B83FBCB
:10045C0001239A10CB17D21A13469B0013445B004E
:10046C00CA1A114B5A6017E03B680E4A82FB031202
:10047C009210DB17D31A0C4A93603968094B83FB33
:10048C0001239A10CB17D21A13469B0013445B001E
:10049C00CA1A054BDA6000BF00BF0C37BD4680BCE2
:1004AC00704700BF676666666C00002080B483B03E
:1004BC0000AF7860044A7B68012142F8231000BF2A
:1004CC000C37BD4680BC7047E000002080B483B080
:1004DC0000AF7860094A7B6852F82330012B06D1B3
:1004EC00064A7B68002142F82310012300E0002318
:1004FC0018460C37BD4680BC704700BFE00000209A
:10050C0080B582B000AF00237B607EE0434A7B68FD
:10051C0052F8232042497B6841F82320414A7B68EA
:10052C0052F823203D497B6841F823203E4A7B68E2
:10053C0052F823203D497B6831F813301946104698
:10054C0001F040FE03461946364A7B6842F82310F8
:10055C00344A7B6852F8232030497B6851F82330A9
:10056C009A424FD12D4A7B6852F823202C497B6844
:10057C0051F823309A4245D12D4A7B6852F82320FA
:10058C0027497B6851F823309A4216D0244A7B685D
:10059C0052F8232026497B6841F82320244A7B68A3
:1005AC0052F82330002B2DD17868FFF77FFF214ABA
:1005BC007B68C82142F8231024E01D4A7B6852F85E
:1005CC002330002B1ED11B4A7B6852F82330002BA2
:1005DC0018DD184A7B6852F823305A1E15497B687F
:1005EC0041F82320134A7B6852F82330002B09D1A1
:1005FC00104A7B68C82142F823100F4A7B680121FE
:10060C0042F823107B6801337B607B68022B7FF7F9
:10061C007DAF00BF00BF0837BD4680BDC4000020C1
:10062C0014010020F8000020000000200C00002025
:10063C00EC000020D40000200401002080B582B022
:10064C0000AF7860AE4B1B68012B40F08A80AD4B3D
:10065C001B680D2B19D00D2B3DDC0B2B02D00C2B5A
:10066C0026D038E000224FF48071A74801F0C1FD7C
:10067C0001224FF48061A44801F0BBFD01224FF42C
:10068C000071A14801F0B5FD26E001224FF4807104
:10069C009D4801F0AEFD00224FF480619A4801F0B4
:1006AC00A8FD01224FF40071974801F0A2FD13E060
:1006BC0001224FF48071944801F09BFD01224FF40C
:1006CC008061914801F095FD00224FF400718E4835
:1006DC0001F08FFD00E000BF8C4B1B680D2B1AD076
:1006EC000D2B00F303810B2B02D00C2B26D0FDE03D
:1006FC0000224FF40061844801F07BFD01224FF48D
:10070C000051814801F075FD01224FF480517E4863
:10071C0001F06FFDEFE001224FF400617A4801F027
:10072C0068FD00224FF40051774801F062FD012270
:10073C004FF48051744801F05CFDDCE001224FF471
:10074C000061714801F055FD01224FF400516E48D3
:10075C0001F04FFD00224FF480516B4801F049FD30
:10076C00C9E0674B1B68022B04D0654B1B68032B3D
:10077C0040F0BE807B681B2B00F2BC8001A252F8BB
:10078C0023F000BF01080008010900080109000856
:10079C000109000801090008010900080109000805
:1007AC0001090008010900080109000801090008F5
:1007BC0001090008010900080109000801090008E5
:1007CC0001090008010900080109000801090008D5
:1007DC000109000801090008B7080008CD08000845
:1007EC00E30800083F0800085D08000899080008A5
:1007FC007B0800084FF48071434801F012FD4FF460
:10080C000061414801F00DFD4FF400713E4801F0CC
:10081C0008FD4FF480513C4801F003FD4FF480611A
:10082C00394801F0FEFC4FF40051374801F0F9FC57
:10083C0061E000F0BBF900224FF48071324801F006
:10084C00D8FC00224FF400512F4801F0D2FC52E0AA
:10085C0000F0ACF900224FF480712B4801F0C9FC78
:10086C0000224FF48051284801F0C3FC43E000F013
:10087C009DF900224FF40061234801F0BAFC0022DC
:10088C004FF40071204801F0B4FC34E000F08EF914
:10089C0000224FF400611C4801F0ABFC00224FF425
:1008AC008061194801F0A5FC25E04FF480711648D1
:1008BC0001F0B7FC4FF40061134801F0B2FC1AE0F0
:1008CC004FF40071104801F0ACFC4FF480510E480D
:1008DC0001F0A7FC0FE04FF480610B4801F0A1FC84
:1008EC004FF40051084801F09CFC04E000BF02E00A
:1008FC0000BF00E000BF00BF0837BD4680BD00BF91
:10090C00640000202000002000080140240000208A
:10091C0080B500AF0020FFF791FE704B1B680D2BCC
:10092C0025D00D2B61DC0B2B02D00C2B3ED05CE0C8
:10093C006B4B1B6819460120FFF772FD694B1B6856
:10094C00002B54D1654B0D221A60674B1B68642237
:10095C0002FB03F3634A1360634B1B68604A13602A
:10096C005F4B1B6819460120FFF75AFD3FE05C4BBB
:10097C001B6819460120FFF753FD5A4B1B68002BCF
:10098C0037D1564B0C221A60584B1B68642202FB61
:10099C0003F3544A1360554B1B68514A1360504B78
:1009AC001B6819460120FFF73BFD22E04C4B1B68EE
:1009BC0019460120FFF734FD4A4B1B68002B1AD156
:1009CC00464B0B221A604A4B1B68642202FB03F352
:1009DC00444A1360464B1B68414A1360404B1B68EA
:1009EC0019460120FFF71CFD05E000BF04E000BF25
:1009FC0002E000BF00E000BF3E4B1B680D2B25D072
:100A0C000D2B61DC0B2B02D00C2B3ED05CE03A4B57
:100A1C001B6819460220FFF703FD384B1B68002B9F
:100A2C0054D1344B0D221A602F4B1B68642202FBED
:100A3C0003F3324A13602C4B1B682F4A13602E4B66
:100A4C001B6819460220FFF7EBFC3FE02A4B1B68A2
:100A5C0019460220FFF7E4FC284B1B68002B37D10A
:100A6C00244B0C221A60214B1B68642202FB03F3FB
:100A7C00224A13601D4B1B681F4A13601E4B1B68D8
:100A8C0019460220FFF7CCFC22E01B4B1B681946D1
:100A9C000220FFF7C5FC194B1B68002B1AD1154B14
:100AAC000B221A60124B1B68642202FB03F3134ADD
:100ABC0013600F4B1B68104A13600F4B1B681946D1
:100ACC000220FFF7ADFC05E000BF04E000BF02E030
:100ADC0000BF00E000BF00BF80BD00BF20000020B1
:100AEC00D000002080000020180000201C000020F6
:100AFC00140000202400002010010020840000209D
:100B0C0080B500AF144B1B68002B0FD1124B642225
:100B1C001A60124B1B68013B104A1360104B1B6888
:100B2C00013B0F4A13600F4B01221A600D4B1B68DF
:100B3C00012B0ED10B4B00221A60084B1B68194677
:100B4C000120FFF76DFC064B1B6819460220FFF7CE
:100B5C0067FC00BF80BD00BF38000020D000002023
:100B6C00100100209000002080B500AFFFF7C8FFF7
:100B7C000C4B1B68002B13D10A4B0A221A600A4B30
:100B8C001B681846FFF7E6FB074B1B680133064A48
:100B9C001360054B1B68032B02DD034B00221A600C
:100BAC0000BF80BD880000207C00002080B500AF15
:100BBC0001224FF48071114801F01BFB01224FF40C
:100BCC0080610E4801F015FB01224FF400710B48B7
:100BDC0001F00FFB01224FF40061084801F009FB02
:100BEC0001224FF40051054801F003FB01224FF4A0
:100BFC008051024801F0FDFA00BF80BD00080140A1
:100C0C0080B500AF00210120FFF70AFC0021022073
:100C1C00FFF706FC00BF80BD80B582B000AF7860E6
:100C2C007B681B2B76D801A252F823F0C10C00086C
:100C3C00210D0008210D0008210D0008210D0008D0
:100C4C00210D0008210D0008210D0008210D0008C0
:100C5C00210D0008210D0008210D0008210D0008B0
:100C6C00210D0008210D0008210D0008210D0008A0
:100C7C00210D0008210D0008210D0008210D000890
:100C8C00DF0C00080B0D0008F50C0008A90C00087F
:100C9C00B10C0008D70C0008B90C00081820FFF79D
:100CAC00CDFC40E01920FFF7C9FC3CE01B20FFF70E
:100CBC00C5FC38E01E4B1B68002B2DDC1C4B19228D
:100CCC001A600020FFF7BAFC26E01A20FFF7B6FCEA
:100CDC0029E0174B1B68002B20DC154B32221A60C5
:100CEC001520FFF7ABFC19E0114B1B68002B17DC30
:100CFC000F4B32221A601720FFF7A0FC10E00C4BB0
:100D0C001B68002B0EDC0A4B32221A601620FFF7F0
:100D1C0095FC07E000BF06E000BF04E000BF02E066
:100D2C0000BF00E000BF00BF0837BD4680BD00BF5C
:100D3C008C00002080B500AF8021024801F071FAD0
:100D4C0000BF80BD0008014080B500AF00F050FF2F
:100D5C0000F02AF800F0B0F800F062F80D4801F04D
:100D6C00A5FE00F01BFA012200210B4800F07AFAD4
:100D7C0001220021094800F075FA192200210848C7
:100D8C0000F070FA01220021064800F06BFA00F026
:100D9C00E9FAFCE720010020F11300080D0500081A
:100DAC00410D00086D14000880B590B000AF07F13C
:100DBC00180328220021184602F028FA3B1D0022B5
:100DCC001A605A609A60DA601A610223BB610123CF
:100DDC00BB621023FB6200237B6307F118031846E8
:100DEC0001F038FA0346002B01D000F0E1F80F2394
:100DFC007B600023BB600023FB6000233B6100236E
:100E0C007B613B1D0021184601F0A4FC0346002B1E
:100E1C0001D000F0CDF800BF4037BD4680BD0000CA
:100E2C0080B586B000AF07F1080300221A605A6043
:100E3C009A60DA603B4600221A605A601D4B4FF0F4
:100E4C0080421A601B4B41F63F725A60194B0022CC
:100E5C009A60184B0922DA60164B00221A61154B66
:100E6C0000229A61134801F0D1FD0346002B01D0FA
:100E7C0000F09EF84FF48053BB6007F1080319464D
:100E8C000C4801F04FFF0346002B01D000F090F806
:100E9C0000233B6000237B603B461946054802F06B
:100EAC0027F90346002B01D000F082F800BF183759
:100EBC00BD4680BD2001002080B588B000AF07F191
:100ECC00100300221A605A609A60DA602F4B9B69FB
:100EDC002E4A43F0100393612C4B9B6903F01003D3
:100EEC00FB60FB68294B9B69284A43F00403936120
:100EFC00264B9B6903F00403BB60BB68234B9B69C7
:100F0C00224A43F008039361204B9B6903F00803CA
:100F1C007B607B68002243F6FF711D4801F069F984
:100F2C00002240F2FF711B4801F063F94FF460435B
:100F3C003B6100237B610123BB6107F11003194660
:100F4C00154800F0C5FF43F6FF733B6101237B613D
:100F5C000023BB610223FB6107F1100319460C4807
:100F6C0000F0B6FF40F2FF733B6101237B6100236D
:100F7C00BB610223FB6107F110031946054800F021
:100F8C00A7FF00BF2037BD4680BD00BF0010024048
:100F9C0000080140000C01400010014080B582B0F7
:100FAC0000AF786000F09AF900BF0837BD4680BDED
:100FBC0080B400AF72B600BFFEE7000080B483B00F
:100FCC0000AF78607B68282B1ED8124B1B781A4612
:100FDC007B68D9B2104B99540E4B1B785A1C0F4B93
:100FEC0083FB02131911D317C91A0B469B000B4430
:100FFC00DB00D11ACAB2074B1A70094B1B780133AC
:10100C00DAB2074B1A7000E000BF0C37BD4680BC4B
:10101C00704700BFC100002098000020676666661C
:10102C00C200002080B483B000AF7860154B1B78F1
:10103C00002B01D100231FE0134B1B781A46134BD6
:10104C009B5C1A467B681A600F4B1B785A1C104B22
:10105C0083FB02131911D317C91A0B469B000B44BF
:10106C00DB00D11ACAB2084B1A70064B1B78013B35
:10107C00DAB2044B1A70012318460C37BD4680BCFB
:10108C00704700BFC2000020C00000209800002064
:10109C006766666680B485B000AF786039607B683F
:1010AC0000225A617B6800229A613B4B1B68002B23
:1010BC0006D17B683A685A60374A7B68136066E0F1
:1010CC00354B1B685B683A689A4216D2324B1B68E8
:1010DC005968314B1B683A688A1A5A602E4B1A6849
:1010EC007B685A612C4B1B687A689A617B683A68FA
:1010FC005A60294A7B68136049E0274B1B68FB60E8
:10110C003B68BB6007E0FB685B68BA68D31ABB60DE
:10111C00FB685B69FB60FB685B69002B04D0FB68B8
:10112C005B68BA689A42EED2FB685B68BA689A420E
:10113C0012D3FB685B69002B0ED1FB685B68BA6845
:10114C00D31ABB60FB687A685A617B68FA689A614B
:10115C007B68BA685A601AE07B68BA685A60FB68A8
:10116C005A68BB68D21AFB685A607B68FA685A6185
:10117C00FB689A697B689A61FB689B69002B03D0BA
:10118C00FB689B697A685A61FB687A689A611437C4
:10119C00BD4680BC704700BF9400002080B483B073
:1011AC0000AF2B4B00221A602A4B00221A702A4BDC
:1011BC0000221A70294B00221A7000237B603DE03C
:1011CC0027497A681346DB009B1A9B000B440022CC
:1011DC001A6023497A681346DB009B1A9B000B4468
:1011EC00083300221A601E497A681346DB009B1AEA
:1011FC009B000B440C3300221A7019497A68134671
:10120C00DB009B1A9B000B44143300221A60144918
:10121C007A681346DB009B1A9B000B4418330022A0
:10122C001A6079680E487A681346DB009B1A9B009B
:10123C000344103319607B6801337B607B68272B78
:10124C00BEDD00BF00BF0C37BD4680BC704700BF81
:10125C0094000020C0000020C1000020C20000202B
:10126C006801002080B586B000AFF860B9607A6084
:10127C0000237B6102E07B6901337B617B69272B57
:10128C0009DC15497A691346DB009B1A9B000B4459
:10129C001B68002BEFD17B69282B18D07A69134679
:1012AC00DB009B1A9B000C4A13443B613B69FA68B8
:1012BC001A603B697A689A607A693B691A613B6982
:1012CC0000221A73B9683869FFF7E4FE00E000BF2A
:1012DC001837BD4680BD00BF6801002080B582B0C4
:1012EC0000AF1F4B1B68002B35D01D4B1B685B6878
:1012FC00002B26D01A4B1B685A68013A5A6020E022
:10130C00174B1B687B60164B1B685B69144A136098
:10131C00134B1B68002B03D0114B1B6800229A61E6
:10132C007B6800225A617B6800229A617B681B7B78
:10133C000133DAB27B681A737B681B691846FFF7B6
:10134C003DFE074B1B68002B06D0054B1B685B68EA
:10135C00002BD5D000E000BF0837BD4680BD00BFD4
:10136C009400002080B582B000AF3B1D1846FFF7FB
:10137C0059FE0346002B2FD07A6819491346DB001F
:10138C009B1A9B000B440C331B78013BD8B21449BD
:10139C001346DB009B1A9B000B440C3302461A705D
:1013AC007A680F491346DB009B1A9B000B441B68A1
:1013BC0098477A681346DB009B1A9B00084A9818DA
:1013CC007A6807491346DB009B1A9B000B440833D1
:1013DC001B681946FFF75EFE00BF0837BD4680BD8F
:1013EC006801002080B400AF184B1B68002B04DD93
:1013FC00164B1B68013B154A1360154B1B68002BE1
:10140C0004DD134B1B68013B114A1360114B1B6825
:10141C00002B04DD0F4B1B68013B0E4A13600E4B77
:10142C001B68002B04DD0C4B1B68013B0A4A136044
:10143C000A4B1B68002B04DD084B1B68013B074A59
:10144C00136000BFBD4680BC704700BF8000002009
:10145C008400002088000020380000208C00002030
:10146C0080B500AFA74B1B68032B00F2F48201A2DE
:10147C0052F823F091140008DB140008251500081D
:10148C007B170008FFF792FB9E4B01221A609E4BC4
:10149C001B68642202FB03F39C4A13609C4B1B6881
:1014AC00642202FB03F39B4A13609B4B0A221A60D3
:1014BC009A4B64221A609A4B32221A60924B1B6828
:1014CC00984A1360924B1B68974A1360C8E200203D
:1014DC00FFF71EFAFFF748FB0020FEF7F7FF034665
:1014EC00002B00F0BA82874B02221A608F4B182215
:1014FC001A608B4B4FF4FA721A60874B19221A60E0
:10150C00874B05221A60FFF77BFBFFF74FFB02218D
:10151C000220FEF785FFA3E2844B1B68183B032BCC
:10152C0000F2BC8001A252F823F000BF491500085C
:10153C00AD150008FB1500085B1600087B4B1B68FB
:10154C00182B02D0794B18221A600120FEF7BEFF2F
:10155C000346002B0BD0754B19221A600121012078
:10156C00FEF75EFF6E4B4FF496721A609FE06A4B6B
:10157C001B68002B40F09480674B0A221A606C4B5E
:10158C001B685A1C6A490A601846FEF7E3FE684B52
:10159C001B68032B40F38480654B00221A607FE0AC
:1015AC005F4B1B68002B0BDC604B1A221A605C4BE8
:1015BC004FF4FA721A6002210120FEF731FF76E037
:1015CC00554B1B68002B6DD1534B0A221A60584B9C
:1015DC001B685A1C56490A601846FEF7BBFE544B52
:1015EC001B68032B5EDD524B00221A605AE04F4BF6
:1015FC001B681A2B02D04D4B1A221A600120FEF7E1
:10160C0065FF0346002B0BD0484B1B221A60444B42
:10161C004FF496721A6003210120FEF701FF46E099
:10162C003D4B1B68002B3FD13B4B0A221A60404BB1
:10163C001B685A1C3E490A601846FEF78BFE3C4B51
:10164C001B68032B30DD3A4B00221A602CE0344B24
:10165C001B68002B0BDC354B18221A60304B4FF4F7
:10166C00FA721A6002210120FEF7DAFE1FE02A4B03
:10167C001B68002B1AD1284B0A221A602C4B1B68B2
:10168C005A1C2B490A601846FEF764FE284B1B684F
:10169C00032B0BDD264B00221A6007E000BF06E08F
:1016AC0000BF04E000BF02E000BF00E000BF1F4B22
:1016BC001B681846FFF7B0FA0020FEF707FF034639
:1016CC00002B3BD00F4B03221A601A4B1F221A60BF
:1016DC00164B15221A60104B0A221A60104B32223C
:1016EC001A60FFF763FA084B1B68134A1360124B1E
:1016FC001B6819460120FEF793FE03210220FEF71A
:10170C008FFEADE16400002014000020800000205A
:10171C0018000020840000208800002038000020E1
:10172C008C000020D0000020100100206800002058
:10173C007C00002028000020C8050020A44B1B685A
:10174C00002B40F08C81A24B0A221A60A14B1B6823
:10175C005A1CA0490A601846FEF7FCFD9D4B1B68FD
:10176C00032B40F37C819B4B00221A6077E19A4B50
:10177C001B68212B00F0E480212B00F364811F2BCC
:10178C0002D0202B6BD05EE1944B1B68152B04D040
:10179C00924B15221A60FFF709FA904B1B681846FA
:1017AC00FFF73AFA0120FEF791FE0346002B11D009
:1017BC008B4B1B6801338A4A1360894B1B68632B64
:1017CC0002DD874B00221A60854B1B6819460120ED
:1017DC00FEF726FE7E4B1B68002B11D17C4B0A2298
:1017EC001A607C4B1B685A1C7A490A601846FEF733
:1017FC00B1FD784B1B68032B02DD764B00221A607F
:10180C000220FEF763FE0346002B04D0744B1B68CA
:10181C00744A13601EE10020FEF758FE0346002BAD
:10182C0000F013816C4B20221A606C4B17221A604B
:10183C006D4B1B686A4A1360654B0A221A606B4B2E
:10184C0032221A60FFF7B2F9654B1B68194601206A
:10185C00FEF7E6FD03210220FEF7E2FDFAE05F4B06
:10186C001B68172B04D05D4B17221A60FFF79EF9EB
:10187C005A4B1B681846FFF7CFF90120FEF726FEDE
:10188C000346002B11D0564B1B680133544A13608E
:10189C00534B1B68632B02DD514B00221A60504BDB
:1018AC001B6819460120FEF7BBFD494B1B68002B3A
:1018BC0011D1474B0A221A60464B1B685A1C4549EA
:1018CC000A601846FEF746FD424B1B68032B02DDEF
:1018DC00404B00221A600220FEF7F8FD0346002B55
:1018EC000ED03F4B1B68404A13603D4B1B6819469A
:1018FC000120FEF795FD03210220FEF791FDA9E0E2
:10190C000020FEF7E3FD0346002B00F0A080324BD5
:10191C0021221A60364B1B68314A13602F4B16225A
:10192C001A602B4B0A221A60304B32221A60FFF7D6
:10193C003DF92B4B1B6819460120FEF771FD89E020
:10194C00264B1B68162B04D0244B16221A60FFF76B
:10195C002DF9224B1B681846FFF75EF90120FEF7A4
:10196C00B5FD0346002B11D01D4B1B6801331C4ADF
:10197C0013601B4B1B68632B02DD194B00221A6092
:10198C00174B1B6819460120FEF74AFD104B1B68CC
:10199C00002B11D10E4B0A221A600E4B1B685A1CDD
:1019AC000C490A601846FEF7D5FC0A4B1B68032B42
:1019BC0002DD084B00221A600220FEF787FD034669
:1019CC00002B17D0064B1B68094A136042E000BF7E
:1019DC00880000207C0000202800002068000020E7
:1019EC00C805002014000020180000208C000020E6
:1019FC001C0000200020FEF769FD0346002B28D0B8
:101A0C00184B01221A60184B1B68184A1360184BAC
:101A1C001B68184A1360184B0B221A60174B0D22C7
:101A2C001A60114B1B68642202FB03F3144A136007
:101A3C000F4B1B68642202FB03F3124A1360002055
:101A4C00FEF7FCFD06E000BF0AE000BF08E000BFA7
:101A5C0006E000BF04E000BF02E000BF00E000BFF2
:101A6C0000BF80BD6400002014000020D0000020C6
:101A7C00180000201001002020000020240000206D
:101A8C00800000208400002080B485B000AF154B8E
:101A9C009B69144A43F001039361124B9B6903F059
:101AAC000103BB60BB680F4BDB690E4A43F08053EC
:101ABC00D3610C4BDB6903F080537B607B680A4B72
:101ACC005B68FB60FB6823F0E063FB60FB6843F042
:101ADC008063FB60044AFB68536000BF1437BD464B
:101AEC0080BC7047001002400000014080B584B0FB
:101AFC0000AF78607B681B68B3F1804F13D10C4B3F
:101B0C00DB690B4A43F00103D361094BDB6903F03A
:101B1C000103FB60FB68002200211C2000F0A1F9EE
:101B2C001C2000F0BAF900BF1037BD4680BD00BFC5
:101B3C000010024080B400AFFEE780B400AFFEE7B7
:101B4C0080B400AFFEE780B400AFFEE780B400AF16
:101B5C00FEE780B400AF00BFBD4680BC704780B4C8
:101B6C0000AF00BFBD4680BC704780B400AF00BF63
:101B7C00BD4680BC704780B500AF00F07FF800BF59
:101B8C0080BD000080B500AF024800F0DBFF00BF55
:101B9C0080BD00BF2001002080B400AF00BFBD4657
:101BAC0080BC7047FFF7F8FF0B480C490C4A002328
:101BBC0002E0D458C4500433C4188C42F9D3094AF7
:101BCC00094C002301E013600432A242FBD301F064
:101BDC00F9FAFFF7B9F87047000000204800002020
:101BEC006C32000848000020D0050020FEE7000001
:101BFC0080B500AF084B1B68074A43F01003136015
:101C0C00032000F023F90F2000F008F8FFF73CFF49
:101C1C000023184680BD00BF0020024080B582B072
:101C2C0000AF7860124B1A68124B1B7819464FF4B0
:101C3C007A73B3FBF1F3B2FBF3F3184600F03BF904
:101C4C000346002B01D001230EE07B680F2B0AD832
:101C5C00002279684FF0FF3000F003F9064A7B68E8
:101C6C001360002300E0012318460837BD4680BDF1
:101C7C003C000020440000204000002080B400AF55
:101C8C00054B1B781A46054B1B681344034A13601B
:101C9C0000BFBD4680BC704744000020CC0500202E
:101CAC0080B400AF024B1B681846BD4680BC704721
:101CBC00CC05002080B485B000AF78607B6803F061
:101CCC000703FB600C4BDB68BB60BA684FF6FF0385
:101CDC001340BB60FB681A02BB68134343F0BF633D
:101CEC0043F40033BB60044ABB68D36000BF1437B5
:101CFC00BD4680BC704700BF00ED00E080B400AF73
:101D0C00044BDB681B0A03F007031846BD4680BC76
:101D1C00704700BF00ED00E080B483B000AF034615
:101D2C00FB7197F90730002B0BDBFB7903F01F02DB
:101D3C00064997F907305B09012000FA02F241F8D5
:101D4C00232000BF0C37BD4680BC704700E100E08B
:101D5C0080B483B000AF03463960FB7197F907304C
:101D6C00002B0ADB3B68DAB20C4997F907301201F9
:101D7C00D2B20B4483F800230AE03B68DAB208497C
:101D8C00FB7903F00F03043B1201D2B20B441A7619
:101D9C0000BF0C37BD4680BC704700BF00E100E0BF
:101DAC0000ED00E080B489B000AFF860B9607A60F3
:101DBC00FB6803F00703FB61FB69C3F10703042B0A
:101DCC0028BF0423BB61FB690433062B02D9FB69D2
:101DDC00033B00E000237B614FF0FF32BB6902FA4A
:101DEC0003F3DA43BB681A407B699A404FF0FF312A
:101DFC007B6901FA03F3D9437B680B401343184604
:101E0C002437BD4680BC704780B582B000AF786087
:101E1C007B68013BB3F1807F01D301230FE00A4AB9
:101E2C007B68013B53600F214FF0FF30FFF790FFB1
:101E3C00054B00229A60044B07221A6000231846B7
:101E4C000837BD4680BD00BF10E000E080B582B011
:101E5C0000AF78607868FFF72DFF00BF0837BD46EC
:101E6C0080BD80B586B000AF0346B9607A60FB7365
:101E7C0000237B61FFF742FF78617A68B968786963
:101E8C00FFF790FF024697F90F3011461846FFF7FF
:101E9C005FFF00BF1837BD4680BD80B582B000AF74
:101EAC000346FB7197F907301846FFF735FF00BF63
:101EBC000837BD4680BD80B582B000AF78607868C9
:101ECC00FFF7A2FF034618460837BD4680BD000049
:101EDC0080B48BB000AF7860396000237B62002344
:101EEC003B6248E101227B6A02FA03F3FB613B6827
:101EFC001B68FA691340BB61BA69FB699A4240F0EE
:101F0C0037813B685B68A34A93425ED0A14A9342F7
:101F1C0075D8A14A934258D09F4A93426FD89F4A92
:101F2C00934252D09D4A934269D89D4A93424CD0D9
:101F3C009B4A934263D89B4A934246D0994A934218
:101F4C005DD8122B2AD8122B59D801A252F823F0A3
:101F5C00D71F0008B11F0008C31F00080520000888
:101F6C000B2000080B2000080B2000080B20000899
:101F7C000B2000080B2000080B2000080B20000889
:101F8C000B2000080B2000080B2000080B20000879
:101F9C000B200008B91F0008CD1F0008824A93428D
:101FAC0013D02CE03B68DB683B6229E03B68DB68C4
:101FBC0004333B6224E03B68DB6808333B621FE080
:101FCC003B68DB680C333B621AE03B689B68002B78
:101FDC0002D104233B6213E03B689B68012B05D1C3
:101FEC0008233B627B68FA691A6109E008233B62AB
:101FFC007B68FA695A6103E000233B6200E000BF92
:10200C00BB69FF2B01D87B6801E07B6804337B61E3
:10201C00BB69FF2B02D87B6A9B0002E07B6A083B02
:10202C009B003B617B691A680F213B6901FA03F342
:10203C00DB431A40396A3B6901FA03F31A437B69A3
:10204C001A603B685B6803F08053002B00F09080B3
:10205C00564B9B69554A43F001039361534B9B6963
:10206C0003F00103BB60BB68514A7B6A9B080233D7
:10207C0052F82330FB607B6A03F003039B000F22B2
:10208C0002FA03F3DB43FA681340FB607B68494AAE
:10209C0093420DD07B68484A934207D07B68474AED
:1020AC00934201D1022304E0032302E0012300E068
:1020BC0000237A6A02F0030292009340FA681343F9
:1020CC00FB603B497B6A9B080233FA6841F823208A
:1020DC003B685B6803F48013002B06D0384B9A687E
:1020EC003749BB6913438B6006E0354B9A68BB6973
:1020FC00DB43334913408B603B685B6803F400138C
:10210C00002B06D02E4BDA682D49BB691343CB60EC
:10211C0006E02B4BDA68BB69DB4329491340CB60E3
:10212C003B685B6803F40033002B06D0244B5A68E1
:10213C002349BB6913434B6006E0214B5A68BB69CA
:10214C00DB431F4913404B603B685B6803F48033EF
:10215C00002B06D01A4B1A681949BB6913430B6044
:10216C0006E0174B1A68BB69DB43154913400B603B
:10217C007B6A01337B623B681A687B6A22FA03F341
:10218C00002B7FF4AFAE00BF00BF2C37BD4680BC28
:10219C00704700BF00003210000031100000221008
:1021AC00000021100000121000001110001002405D
:1021BC000000014000080140000C014000100140EB
:1021CC000004014080B485B000AF78600B467B8082
:1021DC007B689A687B881340002B02D00123FB7329
:1021EC0001E00023FB73FB7B18461437BD4680BC13
:1021FC00704780B483B000AF78600B467B80134689
:10220C007B707B78002B03D07A887B681A6103E0A3
:10221C007B881A047B681A6100BF0C37BD4680BCF2
:10222C00704780B485B000AF78600B467B807B68CC
:10223C00DB68FB607A88FB6813401A04FB68D9439F
:10224C007B880B401A437B681A6100BF1437BD466C
:10225C0080BC704780B586B000AF78607B68002B7F
:10226C0001D101236CE27B681B6803F00103002B96
:10227C0000F08780924B5B6803F00C03042B0CD0AE
:10228C008F4B5B6803F00C03082B12D18C4B5B68F3
:10229C0003F48033B3F5803F0BD1894B1B6803F4F7
:1022AC000033002B6CD07B685B68002B68D101235A
:1022BC0046E27B685B68B3F5803F06D1804B1B68B8
:1022CC007F4A43F4803313602EE07B685B68002BFD
:1022DC000CD17B4B1B687A4A23F480331360784B08
:1022EC001B68774A23F4802313601DE07B685B68CE
:1022FC00B3F5A02F0CD1724B1B68714A43F48023A9
:10230C0013606F4B1B686E4A43F4803313600BE011
:10231C006B4B1B686A4A23F480331360684B1B6851
:10232C00674A23F4802313607B685B68002B13D00F
:10233C00FFF7B6FC386108E0FFF7B2FC02463B69D8
:10234C00D31A642B01D90323FAE15D4B1B6803F408
:10235C000033002BF0D014E0FFF7A2FC386108E04A
:10236C00FFF79EFC02463B69D31A642B01D9032369
:10237C00E6E1534B1B6803F40033002BF0D100E073
:10238C0000BF7B681B6803F00203002B63D04C4B2F
:10239C005B6803F00C03002B0BD0494B5B6803F01C
:1023AC000C03082B1CD1464B5B6803F48033002BC9
:1023BC0016D1434B1B6803F00203002B05D07B683E
:1023CC001B69012B01D00123BAE13D4B1B6823F0A3
:1023DC00F8027B685B69DB00394913430B603AE018
:1023EC007B681B69002B20D0364B01221A60FFF74B
:1023FC0057FC386108E0FFF753FC02463B69D31ADF
:10240C00022B01D903239BE12D4B1B6803F0020324
:10241C00002BF0D02A4B1B6823F0F8027B685B6919
:10242C00DB00274913430B6015E0264B00221A6092
:10243C00FFF736FC386108E0FFF732FC02463B69D7
:10244C00D31A022B01D903237AE11D4B1B6803F02D
:10245C000203002BF0D17B681B6803F00803002BF0
:10246C003AD07B689B69002B19D0174B01221A605C
:10247C00FFF716FC386108E0FFF712FC02463B69D7
:10248C00D31A022B01D903235AE10D4B5B6A03F0DB
:10249C000203002BF0D0012000F09AFA1CE00A4B4A
:1024AC0000221A60FFF7FCFB38610FE0FFF7F8FB26
:1024BC0002463B69D31A022B08D9032340E100BF23
:1024CC000010024000004242800442429E4B5B6A74
:1024DC0003F00203002BE9D17B681B6803F00403B3
:1024EC00002B00F0A6800023FB75974BDB6903F0F3
:1024FC008053002B0DD1944BDB69934A43F08053EE
:10250C00D361914BDB6903F08053BB60BB68012343
:10251C00FB758E4B1B6803F48073002B18D18B4B0F
:10252C001B688A4A43F480731360FFF7B9FB386168
:10253C0008E0FFF7B5FB02463B69D31A642B01D9BF
:10254C000323FDE0814B1B6803F48073002BF0D058
:10255C007B68DB68012B06D17B4B1B6A7A4A43F004
:10256C00010313622DE07B68DB68002B0CD1764BEA
:10257C001B6A754A23F001031362734B1B6A724A80
:10258C0023F0040313621CE07B68DB68052B0CD181
:10259C006D4B1B6A6C4A43F0040313626A4B1B6A53
:1025AC00694A43F0010313620BE0674B1B6A664AEE
:1025BC0023F001031362644B1B6A634A23F0040388
:1025CC0013627B68DB68002B15D0FFF769FB386161
:1025DC000AE0FFF765FB02463B69D31A41F28832E9
:1025EC00934201D90323ABE0574B1B6A03F0020360
:1025FC00002BEED014E0FFF753FB38610AE0FFF735
:10260C004FFB02463B69D31A41F28832934201D9FF
:10261C00032395E04C4B1B6A03F00203002BEED115
:10262C00FB7D012B05D1484BDB69474A23F08053D6
:10263C00D3617B68DB69002B00F08180424B5B68C7
:10264C0003F00C03082B61D07B68DB69022B46D1AD
:10265C003F4B00221A60FFF723FB386108E0FFF7BD
:10266C001FFB02463B69D31A022B01D9032367E0F7
:10267C00354B1B6803F00073002BF0D17B681B6A91
:10268C00B3F5803F08D1304B5B6823F400327B6894
:10269C009B682D4913434B602B4B5B6823F47412DE
:1026AC007B68196A7B685B6A0B43274913434B6051
:1026BC00274B01221A60FFF7F3FA386108E0FFF7A5
:1026CC00EFFA02463B69D31A022B01D9032337E0F8
:1026DC001D4B1B6803F00073002BF0D02FE01C4B3C
:1026EC0000221A60FFF7DCFA386108E0FFF7D8FA2D
:1026FC0002463B69D31A022B01D9032320E0124B6B
:10270C001B6803F00073002BF0D118E07B68DB69C9
:10271C00012B01D1012313E00B4B5B68FB60FB68C1
:10272C0003F480327B681B6A9A4206D1FB6803F47F
:10273C0070127B685B6A9A4201D0012300E000238F
:10274C0018461837BD4680BD00100240007000408E
:10275C006000424280B584B000AF786039607B681D
:10276C00002B01D10123D0E06A4B1B6803F0070357
:10277C003A689A4210D9674B1B6823F007026549E7
:10278C003B6813430B60634B1B6803F007033A6809
:10279C009A4201D00123B8E07B681B6803F0020366
:1027AC00002B20D07B681B6803F00403002B05D0A2
:1027BC00594B5B68584A43F4E06353607B681B6871
:1027CC0003F00803002B05D0534B5B68524A43F4CB
:1027DC0060535360504B5B6823F0F0027B689B683E
:1027EC004D4913434B607B681B6803F00103002BBE
:1027FC0040D07B685B68012B07D1474B1B6803F407
:10280C000033002B15D101237FE07B685B68022B22
:10281C0007D1414B1B6803F00073002B09D1012336
:10282C0073E03D4B1B6803F00203002B01D1012325
:10283C006BE0394B5B6823F003027B685B683649BD
:10284C0013434B60FFF72CFAF8600AE0FFF728FA05
:10285C000246FB68D31A41F28832934201D9032312
:10286C0053E02D4B5B6803F00C027B685B689B00AC
:10287C009A42EBD1274B1B6803F007033A689A4244
:10288C0010D2244B1B6823F0070222493B681343E8
:10289C000B60204B1B6803F007033A689A4201D087
:1028AC00012332E07B681B6803F00403002B08D083
:1028BC00194B5B6823F4E0627B68DB6816491343B1
:1028CC004B607B681B6803F00803002B09D0124B8C
:1028DC005B6823F460527B681B69DB000E49134371
:1028EC004B6000F021F802460B4B5B681B0903F0B0
:1028FC000F030A49CB5C22FA03F3094A1360094B14
:10290C001B681846FFF78AF9002318461037BD4696
:10291C0080BD00BF00200240001002404032000881
:10292C003C0000204000002080B487B000AF0023A2
:10293C00FB600023BB6000237B6100237B600023D2
:10294C003B611E4B5B68FB60FB6803F00C03042BC4
:10295C0002D0082B03D027E0194B3B6127E0FB6822
:10296C009B0C03F00F03174AD35C7B60FB6803F4EA
:10297C008033002B10D0114B5B685B0C03F0010310
:10298C00114AD35CBB607B680D4A02FB03F2BB6847
:10299C00B2FBF3F37B6104E07B680C4A02FB03F3AC
:1029AC007B617B693B6102E0054B3B6100BF3B698E
:1029BC0018461C37BD4680BC704700BF0010024053
:1029CC0000127A00503200086032000800093D0005
:1029DC0080B485B000AF78600A4B1B680A4AA2FB32
:1029EC0003235B0A7A6802FB03F3FB6000BFFB68FE
:1029FC005A1EFA60002BF9D100BF00BF1437BD4638
:102A0C0080BC70473C000020D34D621080B582B072
:102A1C0000AF78607B68002B01D1012341E07B681B
:102A2C0093F83D30DBB2002B06D17B68002283F893
:102A3C003C207868FFF75AF87B68022283F83D2027
:102A4C007B681A687B6804331946104600F056FA06
:102A5C007B68012283F846207B68012283F83E20A4
:102A6C007B68012283F83F207B68012283F8402099
:102A7C007B68012283F841207B68012283F8422085
:102A8C007B68012283F843207B68012283F8442071
:102A9C007B68012283F845207B68012283F83D2066
:102AAC00002318460837BD4680BD000080B485B0B1
:102ABC0000AF78607B6893F83D30DBB2012B01D01E
:102ACC00012335E07B68022283F83D207B681B687C
:102ADC00DA687B681B6842F00102DA607B681B686D
:102AEC00164A934209D07B681B68B3F1804F04D01F
:102AFC007B681B68124A934211D17B681B689B68E8
:102B0C0003F00703FB60FB68062B10D07B681B6887
:102B1C001A687B681B6842F001021A6007E07B6848
:102B2C001B681A687B681B6842F001021A6000235C
:102B3C0018461437BD4680BC704700BF002C0140BE
:102B4C000004004080B584B000AF78607B681B68DF
:102B5C00DB68FB607B681B681B69BB60BB6803F0B0
:102B6C000203002B20D0FB6803F00203002B1BD0C8
:102B7C007B681B686FF002021A617B6801221A776E
:102B8C007B681B689B6903F00303002B03D07868F8
:102B9C0000F098F905E0786800F08BF9786800F09F
:102BAC009AF97B6800221A77BB6803F00403002BA8
:102BBC0020D0FB6803F00403002B1BD07B681B6840
:102BCC006FF004021A617B6802221A777B681B681B
:102BDC009B6903F44073002B03D0786800F072F902
:102BEC0005E0786800F065F9786800F074F97B68A6
:102BFC0000221A77BB6803F00803002B20D0FB6877
:102C0C0003F00803002B1BD07B681B686FF00802D5
:102C1C001A617B6804221A777B681B68DB6903F0F6
:102C2C000303002B03D0786800F04CF905E07868BA
:102C3C0000F03FF9786800F04EF97B6800221A77B3
:102C4C00BB6803F01003002B20D0FB6803F01003CB
:102C5C00002B1BD07B681B686FF010021A617B681D
:102C6C0008221A777B681B68DB6903F44073002B1E
:102C7C0003D0786800F026F905E0786800F019F9BF
:102C8C00786800F028F97B6800221A77BB6803F09B
:102C9C000103002B0CD0FB6803F00103002B07D0C1
:102CAC007B681B686FF001021A617868FEF776F991
:102CBC00BB6803F08003002B0CD0FB6803F080038F
:102CCC00002B07D07B681B686FF080021A61786854
:102CDC0000F06FFABB6803F04003002B0CD0FB68CC
:102CEC0003F04003002B07D07B681B686FF0400299
:102CFC001A61786800F0F8F8BB6803F02003002B29
:102D0C000CD0FB6803F02003002B07D07B681B68FA
:102D1C006FF020021A61786800F042FA00BF103799
:102D2C00BD4680BD80B584B000AF786039600023AB
:102D3C00FB737B6893F83C30012B01D10223B4E088
:102D4C007B68012283F83C207B68022283F83D20BB
:102D5C007B681B689B68BB60BB6823F07703BB6018
:102D6C00BB6823F47F43BB607B681B68BA689A60BE
:102D7C003B681B68B3F5005F3ED0B3F5005F00F213
:102D8C008780B3F5805F00F08680B3F5805F7FD8D5
:102D9C00702B1AD0702B7BD8602B50D0602B77D82F
:102DAC00502B3CD0502B73D8402B58D0402B6FD885
:102DBC00302B64D0302B6BD8202B60D0202B67D8D5
:102DCC00002B5CD0102B5AD062E07B6818683B68F3
:102DDC0099683B685A683B68DB6800F06AF97B6865
:102DEC001B689B68BB60BB6843F07703BB607B6868
:102DFC001B68BA689A604FE07B6818683B689968F2
:102E0C003B685A683B68DB6800F053F97B681B68C9
:102E1C009A687B681B6842F480429A603CE07B684D
:102E2C0018683B6859683B68DB681A4600F0CAF8BA
:102E3C007B681B685021184600F021F92CE07B6858
:102E4C0018683B6859683B68DB681A4600F0E8F87C
:102E5C007B681B686021184600F011F91CE07B6848
:102E6C0018683B6859683B68DB681A4600F0AAF89A
:102E7C007B681B684021184600F001F90CE07B6868
:102E8C001A683B681B681946104600F0F8F803E016
:102E9C000123FB7300E000BF7B68012283F83D2017
:102EAC007B68002283F83C20FB7B18461037BD461C
:102EBC0080BD80B483B000AF786000BF0C37BD46D6
:102ECC0080BC704780B483B000AF786000BF0C3713
:102EDC00BD4680BC704780B483B000AF786000BF43
:102EEC000C37BD4680BC704780B483B000AF7860AF
:102EFC0000BF0C37BD4680BC7047000080B485B065
:102F0C0000AF786039607B681B68FB607B682B4A7C
:102F1C00934207D07B68B3F1804F03D07B68284A7B
:102F2C00934208D1FB6823F07003FB603B685B683D
:102F3C00FA681343FB607B68204A934207D07B6896
:102F4C00B3F1804F03D07B681D4A934208D1FB68D4
:102F5C0023F44073FB603B68DB68FA681343FB6047
:102F6C00FB6823F080023B685B691343FB607B6862
:102F7C00FA681A603B689A687B68DA623B681A6880
:102F8C007B689A627B680D4A934203D13B681A694D
:102F9C007B681A637B6801225A617B681B6903F0AA
:102FAC000103002B05D07B681B6923F001027B68B1
:102FBC001A6100BF1437BD4680BC7047002C01401D
:102FCC000004004080B487B000AFF860B9607A604C
:102FDC00FB681B6A7B61FB681B6A23F00102FB68C0
:102FEC001A62FB689B693B613B6923F0F0033B6110
:102FFC007B681B013A6913433B617B6923F00A032D
:10300C007B617A69BB6813437B61FB683A699A619F
:10301C00FB687A691A6200BF1C37BD4680BC7047DA
:10302C0080B487B000AFF860B9607A60FB681B6A47
:10303C007B61FB681B6A23F01002FB681A62FB6859
:10304C009B693B613B6923F470433B617B681B03C9
:10305C003A6913433B617B6923F0A0037B61BB6836
:10306C001B017A6913437B61FB683A699A61FB68BF
:10307C007A691A6200BF1C37BD4680BC704780B4A9
:10308C0085B000AF786039607B689B68FB60FB683B
:10309C0023F07003FB603A68FB68134343F00703AB
:1030AC00FB607B68FA689A6000BF1437BD4680BC31
:1030BC00704780B487B000AFF860B9607A603B604D
:1030CC00FB689B687B617B6923F47F437B613B6876
:1030DC001A027B681A43BB6813437A6913437B61FA
:1030EC00FB687A699A6000BF1C37BD4680BC70478C
:1030FC0080B485B000AF786039607B6893F83C3061
:10310C00012B01D1022341E07B68012283F83C2092
:10311C007B68022283F83D207B681B685B68FB6040
:10312C007B681B689B68BB60FB6823F07003FB60CB
:10313C003B681B68FA681343FB607B681B68FA6882
:10314C005A607B681B68144A934209D07B681B68E1
:10315C00B3F1804F04D07B681B68104A93420CD1AA
:10316C00BB6823F08003BB603B685B68BA681343A1
:10317C00BB607B681B68BA689A607B68012283F825
:10318C003D207B68002283F83C200023184614372E
:10319C00BD4680BC704700BF002C014000040040BD
:1031AC0080B483B000AF786000BF0C37BD4680BCE4
:1031BC00704780B483B000AF786000BF0C37BD4659
:1031CC0080BC704770B500260C4D0D4C641BA410D0
:1031DC00A64209D100F022F800260A4D0A4C641BC5
:1031EC00A410A64205D170BD55F8043B9847013692
:1031FC00EEE755F8043B98470136F2E764320008D5
:10320C006432000864320008683200080346024445
:10321C00934200D1704703F8011BF9E7F8B500BFE2
:10322C00F8BC08BC9E467047F8B500BFF8BC08BC9B
:04323C009E467047F3
:103240000000000000000000010203040607080956
:1032500002030405060708090A0B0C0D0E0F1010D7
:043260000102000067
:04326400310100082C
:043268000D0100084C
:10326C0000100140001001400010014000200040FF
:10327C0000800000090000000600000003000000B0
:10328C000B0000000D0000001F00000040792430EE
:10329C0019120278001000006400000000127A007D
:0832AC00100000000100000009
:0400000508001BB123
:00000001FF
